:0200000480007A
:10000000130101FE232E1100232C81001304010291
:100010002326A4FE8325C4FEB7470080138507F975
:10002000EF20103F130000008320C1010324810151
:100030001301010267800000130101FD2326110254
:10004000232481021304010393070500231FF4FCFA
:10005000930700032304F4FE93078007A304F4FE30
:100060008357E4FD93D7C7009397070193D7070100
:1000700093F7F7003737008013074745B307F700BA
:10008000838707002305F4FE8357E4FD93D7870099
:100090009397070193D7070193F7F700373700804D
:1000A00013074745B307F70083870700A305F4FE4E
:1000B0008357E4FD93D747009397070193D7070130
:1000C00093F7F7003737008013074745B307F7006A
:1000D000838707002306F4FE8357E4FD93F7F700B8
:1000E0003737008013074745B307F70083870700BA
:1000F000A306F4FE230704FE930784FE138507007E
:10010000EFF01FF0130000008320C10203248102DE
:100110001301010367800000130101FE232E11006B
:10012000232C8100130401022326A4FE8327C4FE8E
:1001300093D707019397070193D70701138507000A
:10014000EFF09FEF8327C4FE9397070193D7070132
:1001500013850700EFF05FEE130000008320C1015C
:10016000032481011301010267800000130101FDD6
:10017000232611022324810213040103232EA4FC4D
:100180009307A0002326F4FE8327C4FE1387F7FFFE
:100190002326E4FE130704FFB307F700238807FEB6
:1001A0008327C4FD639607068327C4FE1387F7FFE2
:1001B0002326E4FE130704FFB307F7001307000329
:1001C0002388E7FE6F0040050327C4FD9307A000C6
:1001D000B377F70293F7F70F9387070393F6F70FB9
:1001E0008327C4FE1387F7FF2326E4FE13978601B7
:1001F00013578741930604FFB387F6002388E7FE71
:100200000327C4FD9307A000B357F702232EF4FC85
:100210008327C4FDE39A07FA8327C4FE9387170058
:10022000130704FEB307F70013850700EFF05FDD47
:10023000130000008320C102032481021301010383
:1002400067800000130101FE232E810013040102C8
:100250009307050013870500A307F4FE9307070023
:100260002307F4FE8347F4FE939787001397070153
:10027000135707418347E4FE9397070193D707413C
:1002800093F7F7019397070193D70741B367F700F7
:100290009397070193D707419397070193D70701D6
:1002A000138507000324C1011301010267800000C8
:1002B000130101FD232611022324810213040103EB
:1002C000232EA4FC9387050013070600A30DF4FC5E
:1002D00093070700230DF4FC0347A4FD8347B4FDF7
:1002E0009305070013850700EFF0DFF5930705007E
:1002F000138707008327C4FD9387870223A0E700A5
:100300008327C4FD938747021387070093071000D4
:100310002320F700130000008327C4FD93874703C1
:1003200083A70700E39A07FE8327C4FD938707038B
:1003300083A707002317F4FE8327C4FD9387470292
:1003400023A007008357E4FE138507008320C10222
:10035000032481021301010367800000130101FDE2
:10036000232611022324810213040103232EA4FC5B
:10037000B7370080138507FCEFF09FC80325C4FD45
:10038000EFF09FD9B7370080138587FEEFF05FC786
:10039000A30704FE6F00C00B8347F4FE1306200082
:1003A000938507000325C4FDEFF09FF09307050038
:1003B0002316F4FE8347F4FE1306300093850700EE
:1003C0000325C4FDEFF0DFEE930705002315F4FECF
:1003D0000357C4FEB70701009387F7FF6304F706CE
:1003E0008357C4FE639607008357A4FE638C0704FB
:1003F000B73700801385C7FEEFF09FC08347F4FE38
:1004000013850700EFF09FD6B73700801385C7FF2D
:10041000EFF01FBF8357C4FE13850700EFF0DFC165
:10042000B737008013854700EFF09FBD8357A4FEC8
:1004300013850700EFF05FC0B7370080138587FE94
:10044000EFF01FBC8347F4FE93871700A307F4FE69
:100450000347F4FE9307F001E3F0E7F4B7370080B9
:100460001385C700EFF0DFB9130000008320C1023D
:10047000032481021301010367800000130101FDC1
:10048000232611022324810213040103232EA4FC3A
:1004900093870500232AC4FCA30DF4FC8347B4FD15
:1004A00013061000938507000325C4FDEFF05FE0FD
:1004B000930705002317F4FEB73700801385C701A3
:1004C000EFF01FB4032544FDEFF09FB3B737008072
:1004D00013858702EFF0DFB28347B4FD1385070071
:1004E000EFF0DFC8B737008013850703EFF05FB187
:1004F0008357E4FE13850700EFF01FB4B737008081
:100500001385C703EFF0DFAF8357E4FE93D72700CF
:100510009397070193D7070193F7170013850700F7
:10052000EFF0DFC4B737008013854704EFF05FAD0D
:100530008357E4FE93D757009397070193D707019A
:1005400093F7170013850700EFF05FC2B7370080FD
:10055000138587FEEFF0DFAA130000008320C1029D
:10056000032481021301010367800000130101FECF
:10057000232E810013040102B70701009387F7FFC0
:100580002326F4FEB7070060938787023727000011
:10059000130747C023A0E700B7070060938747020F
:1005A0001307100023A0E70013000000B707006046
:1005B0009387470383A70700E39A07FEB707006006
:1005C0009387070383A707002326F4FEB70700607D
:1005D0009387470223A007008327C4FE93F717FEE3
:1005E0002326F4FEB70700609387870237270000B1
:1005F000130747C023A0E700B70700609387C7022F
:100600000327C4FE23A0E70013000000B707006023
:100610009387470383A70700E39A07FEB7070060A5
:100620009387870237270000130797C023A0E700AE
:10063000B7070060938747021307100023A0E70065
:1006400013000000B70700609387470383A70700E4
:10065000E39A07FEB70700609387070383A70700A5
:100660002326F4FEB70700609387470223A0070004
:100670008327C4FE93E707202326F4FEB707006014
:100680009387870237270000130797C023A0E7004E
:10069000B70700609387C7020327C4FE23A0E700C3
:1006A00013000000B70700609387470383A7070084
:1006B000E39A07FE130000000324C10113010102A5
:1006C00067800000130101FD23268102130401034A
:1006D000B70701009387F7FF2326F4FEB7470F0003
:1006E000938707242322F4FEB78701009387076AC4
:1006F0002320F4FEB70700609387870237270000A6
:100700001307F7C123A0E700B70700609387C7026C
:1007100023A0070013000000B7070060938747037A
:1007200083A70700E39A07FEB70700609387870255
:1007300037270000130707C023A0E700B7070060B2
:10074000938747021307100023A0E700130000005F
:10075000B70700609387470383A70700E39A07FE64
:10076000B70700609387070383A707002326F4FEDB
:10077000B70700609387470223A007000327C4FE42
:10078000B717000093870720B367F7002326F4FE0E
:10079000B70700609387870237270000130707C059
:1007A00023A0E700B70700609387C7020327C4FEB2
:1007B00023A0E70013000000B707006093874703FA
:1007C00083A70700E39A07FEB707006093878702B5
:1007D00037270000130717C023A0E700B707006002
:1007E000938747021307100023A0E70013000000BF
:1007F000B70700609387470383A70700E39A07FEC4
:10080000B70700609387070383A707002326F4FE3A
:10081000B70700609387470223A007008327C4FE21
:100820009397070193D7070193F707022315F4FE67
:10083000832744FE9387F7FF2322F4FE8357A4FE09
:1008400063960700832744FEE39007F8232E04FCF9
:100850006F0000018327C4FD93871700232EF4FC4B
:100860000327C4FDB78701009387F769E3F4E7FE28
:10087000B70700609387870237270000130717C068
:1008800023A0E700B7070060938747021307100013
:1008900023A0E70013000000B70700609387470319
:1008A00083A70700E39A07FEB70700609387070353
:1008B00083A707002326F4FEB7070060938747024B
:1008C00023A007008327C4FE93F7F70F93F7470091
:1008D000A304F4FE834794FE638E071AB7070060F3
:1008E00093878702371700001307072023A0E7002C
:1008F000B7070060938747021307100023A0E700A3
:1009000013000000B70700609387470383A7070021
:10091000E39A07FEB70700609387070383A70700E2
:100920002326F4FEB70700609387470223A0070041
:100930000327C4FEB7170000B367F7002326F4FEB1
:10094000B707006093878702371700001307072057
:1009500023A0E700B70700609387C7020327C4FE00
:1009600023A0E70013000000B70700609387470348
:1009700083A70700E39A07FEB70700609387870203
:10098000371700001307072023A0E700B707006010
:10099000938747021307100023A0E700130000000D
:1009A000B70700609387470383A70700E39A07FE12
:1009B000B70700609387070383A707002326F4FE89
:1009C000B70700609387470223A007008327C4FE70
:1009D00093E707202326F4FEB7070060938787027A
:1009E000371700001307072023A0E700B7070060B0
:1009F0009387C7020327C4FE23A0E700130000006B
:100A0000B70700609387470383A70700E39A07FEB1
:100A1000B707006093878702371700001307172076
:100A200023A0E700B7070060938747021307100071
:100A300023A0E70013000000B70700609387470377
:100A400083A70700E39A07FEB707006093870703B1
:100A500083A707002326F4FEB707006093874702A9
:100A600023A007008327C4FE9397070193D70701AC
:100A700093F707022315F4FE832704FE9387F7FFFD
:100A80002320F4FE8357A4FE63960700832704FE09
:100A9000E39007F8130000000324C10213010103CF
:100AA00067800000130101FE232E81001304010260
:100AB000231504FE231404FE231304FEB70700606D
:100AC0009387870237270000130727C023A0E7007A
:100AD000B7070060938747021307100023A0E700C1
:100AE00013000000B70700609387470383A7070040
:100AF000E39A07FEB70700609387070383A7070001
:100B00009397070193D707012315F4FEB7070060F9
:100B10009387470223A00700B707006093878702E7
:100B200037270000130737C023A0E700B70700608E
:100B3000938747021307100023A0E700130000006B
:100B4000B70700609387470383A70700E39A07FE70
:100B5000B70700609387070383A7070093970701F0
:100B600093D707012314F4FEB70700609387470269
:100B700023A00700B707006093878702372700008C
:100B80001307F7C123A0E700B70700609387C702E8
:100B90001307300023A0E70013000000B707006030
:100BA0009387470383A70700E39A07FEB707006010
:100BB0009387870237270000130707C123A0E700A8
:100BC000B7070060938747021307100023A0E700D0
:100BD00013000000B70700609387470383A707004F
:100BE000E39A07FEB70700609387070383A7070010
:100BF0009397070193D707012313F4FEB70700600B
:100C00009387470223A00700835764FE9397070149
:100C100093D7070193E707089397070193D7070135
:100C20002313F4FEB707006093878702372700007D
:100C3000130707C123A0E700835764FE139707013A
:100C400013570701B70700609387C70223A0E70087
:100C500013000000B70700609387470383A70700CE
:100C6000E39A07FEB70700609387870237270000E3
:100C70001307F7C123A0E700B70700609387C702F7
:100C80001307000123A0E70013000000B70700606E
:100C90009387470383A70700E39A07FEB787FFFF01
:100CA0009387070F2313F4FEB7070060938787022B
:100CB00037270000130727C123A0E700835764FEEE
:100CC0001397070113570701B70700609387C702FF
:100CD00023A0E70013000000B707006093874703D5
:100CE00083A70700E39A07FEB70700609387870290
:100CF00037270000130727C123A0E700B7070060CC
:100D0000938747021307100023A0E7001300000099
:100D1000B70700609387470383A70700E39A07FE9E
:100D2000B70700609387070383A70700939707011E
:100D300093D707012316F4FEB70700609387470295
:100D400023A007008357C4FE9397070193D7070199
:100D50009397070193D7074163D407006FF0DFF83B
:100D600013000000B7070060938787023727000051
:100D70001307F7C123A0E700B70700609387C702F6
:100D800023A0070013000000B70700609387470304
:100D900083A70700E39A07FEB707006093878702DF
:100DA00037270000130707C023A0E700B70700603C
:100DB000938747021307100023A0E70013000000E9
:100DC000B70700609387470383A70700E39A07FEEE
:100DD000B70700609387070383A70700939707016E
:100DE00093D707012317F4FEB707006093874702E4
:100DF00023A007008357E4FE139707011357070149
:100E0000B787FFFFB367F7009397070193D70701F1
:100E10002317F4FEB7070060938787023727000087
:100E2000130707C023A0E7008357E4FE13970701C9
:100E300013570701B70700609387C70223A0E70095
:100E400013000000B70700609387470383A70700DC
:100E5000E39A07FEB70700609387870237270000F1
:100E6000130707C023A0E700B70700609387470276
:100E70001307100023A0E70013000000B70700606D
:100E80009387470383A70700E39A07FEB70700602D
:100E90009387070383A707009397070193D7070159
:100EA0002316F4FEB70700609387470223A00700CC
:100EB0008357C4FE9397070193D7070193970701C0
:100EC00093D7074163D407006FF0DFF813000000E9
:100ED000B70700609387870237270000130707C012
:100EE00023A0E700B70700609387470213071000AD
:100EF00023A0E70013000000B707006093874703B3
:100F000083A70700E39A07FEB707006093870703EC
:100F100083A707009397070193D707012316F4FED1
:100F2000B70700609387470223A007008357A4FEFA
:100F3000835784FE8357C4FE130000000324C101BD
:100F40001301010267800000130101FE232E11002E
:100F5000232C810013040102B70701009387F7FFD8
:100F60002326F4FEB70700601307500023A0E70014
:100F7000B7070060938747003777000013071720F3
:100F800023A0E700B7070060938707043767606016
:100F90001307C70323A0E700B70700609387470440
:100FA0003707C0B123A0E700B70700609387870425
:100FB00037070100130707F023A0E700B707006019
:100FC0009387C7043707FF0F23A0E700B707006028
:100FD00093870705370700041307071823A0E700C6
:100FE000B707006093874705370781061307F7FFA8
:100FF00023A0E700B70700609387870523A00700B9
:10100000B70700609387C705370708001307F7FF86
:1010100023A0E700B70700609387071C1307F000C1
:1010200023A0E700B707006093870702130770004B
:1010300023A0E700B70700609387070283A7070094
:101040002326F4FEEFF01FA6130000008320C10149
:10105000032481011301010267800000130101FED6
:10106000232E810013040102B70701009387F7FFC5
:101070002326F4FEB7070060938787023727000016
:10108000130747D023A0E700B70700609387470204
:101090001307100023A0E70013000000B70700604B
:1010A0009387470383A70700E39A07FEB70700600B
:1010B0009387070383A707002326F4FEB707006082
:1010C0009387470223A007008327C4FE93F717FEE8
:1010D0002326F4FEB70700609387870237270000B6
:1010E000130747D023A0E700B70700609387C70224
:1010F0000327C4FE23A0E70013000000B707006029
:101100009387470383A70700E39A07FEB7070060AA
:101110009387870237270000130797D023A0E700A3
:10112000B7070060938747021307100023A0E7006A
:1011300013000000B70700609387470383A70700E9
:10114000E39A07FEB70700609387070383A70700AA
:101150002326F4FEB70700609387470223A0070009
:101160008327C4FE93E707202326F4FEB707006019
:101170009387870237270000130797D023A0E70043
:10118000B70700609387C7020327C4FE23A0E700C8
:1011900013000000B70700609387470383A7070089
:1011A000E39A07FE130000000324C10113010102AA
:1011B00067800000130101FD23268102130401034F
:1011C000B70701009387F7FF2326F4FEB7470F0008
:1011D000938707242322F4FEB78701009387076AC9
:1011E0002320F4FEB70700609387870237270000AB
:1011F0001307F7D123A0E700B70700609387C70262
:1012000023A0070013000000B7070060938747037F
:1012100083A70700E39A07FEB7070060938787025A
:1012200037270000130707D023A0E700B7070060A7
:10123000938747021307100023A0E7001300000064
:10124000B70700609387470383A70700E39A07FE69
:10125000B70700609387070383A707002326F4FEE0
:10126000B70700609387470223A007000327C4FE47
:10127000B717000093870720B367F7002326F4FE13
:10128000B70700609387870237270000130707D04E
:1012900023A0E700B70700609387C7020327C4FEB7
:1012A00023A0E70013000000B707006093874703FF
:1012B00083A70700E39A07FEB707006093878702BA
:1012C00037270000130717D023A0E700B7070060F7
:1012D000938747021307100023A0E70013000000C4
:1012E000B70700609387470383A70700E39A07FEC9
:1012F000B70700609387070383A707002326F4FE40
:10130000B70700609387470223A007008327C4FE26
:101310009397070193D7070193F707022315F4FE6C
:10132000832744FE9387F7FF2322F4FE8357A4FE0E
:1013300063960700832744FEE39007F8232E04FCFE
:101340006F0000018327C4FD93871700232EF4FC50
:101350000327C4FDB78701009387F769E3F4E7FE2D
:10136000B70700609387870237270000130717D05D
:1013700023A0E700B7070060938747021307100018
:1013800023A0E70013000000B7070060938747031E
:1013900083A70700E39A07FEB70700609387070358
:1013A00083A707002326F4FEB70700609387470250
:1013B00023A007008327C4FE93F7F70F93F7470096
:1013C000A304F4FE834794FE638E071AB7070060F8
:1013D00093878702371700001307073023A0E70021
:1013E000B7070060938747021307100023A0E700A8
:1013F00013000000B70700609387470383A7070027
:10140000E39A07FEB70700609387070383A70700E7
:101410002326F4FEB70700609387470223A0070046
:101420000327C4FEB7170000B367F7002326F4FEB6
:10143000B70700609387870237170000130707304C
:1014400023A0E700B70700609387C7020327C4FE05
:1014500023A0E70013000000B7070060938747034D
:1014600083A70700E39A07FEB70700609387870208
:10147000371700001307073023A0E700B707006005
:10148000938747021307100023A0E7001300000012
:10149000B70700609387470383A70700E39A07FE17
:1014A000B70700609387070383A707002326F4FE8E
:1014B000B70700609387470223A007008327C4FE75
:1014C00093E707202326F4FEB7070060938787027F
:1014D000371700001307073023A0E700B7070060A5
:1014E0009387C7020327C4FE23A0E7001300000070
:1014F000B70700609387470383A70700E39A07FEB7
:10150000B70700609387870237170000130717306B
:1015100023A0E700B7070060938747021307100076
:1015200023A0E70013000000B7070060938747037C
:1015300083A70700E39A07FEB707006093870703B6
:1015400083A707002326F4FEB707006093874702AE
:1015500023A007008327C4FE9397070193D70701B1
:1015600093F707022315F4FE832704FE9387F7FF02
:101570002320F4FE8357A4FE63960700832704FE0E
:10158000E39007F8130000000324C10213010103D4
:1015900067800000130101FE232E1100232C81001F
:1015A00013040102231304FE231204FE231104FE7C
:1015B000B70700609387870237270000130727D0FB
:1015C00023A0E700B70700609387470213071000C6
:1015D00023A0E70013000000B707006093874703CC
:1015E00083A70700E39A07FEB70700609387070306
:1015F00083A707009397070193D707012313F4FEEE
:10160000B70700609387470223A00700B707006071
:101610009387870237270000130737D023A0E700FE
:10162000B7070060938747021307100023A0E70065
:1016300013000000B70700609387470383A70700E4
:10164000E39A07FEB70700609387070383A70700A5
:101650009397070193D707012312F4FEB7070060A1
:101660009387470223A00700835764FE139707015F
:1016700013570701B70701009387F7FF6302F702CB
:10168000835764FE9397070193D707016392070678
:10169000835744FE9397070193D70701639A070482
:1016A000B737008013850705EFE09F95835764FEE9
:1016B0009397070193D7070113850700EFE0DF97A2
:1016C000B737008013850708EFE09F93835744FEE8
:1016D0009397070193D7070113850700EFE0DF9584
:1016E000B737008013854708EFE09F916F000043F4
:1016F000B707006093878702372700001307F7D1E9
:1017000023A0E700B70700609387C70213073000E4
:1017100023A0E70013000000B7070060938747038A
:1017200083A70700E39A07FEB70700609387870245
:1017300037270000130707D123A0E700B707006091
:10174000938747021307100023A0E700130000004F
:10175000B70700609387470383A70700E39A07FE54
:10176000B70700609387070383A7070093970701D4
:1017700093D707012311F4FEB70700609387470250
:1017800023A00700835724FE9397070193D70701EF
:1017900093E707089397070193D707012311F4FEF6
:1017A000B70700609387870237270000130707D128
:1017B00023A0E700835724FE13970701135707015F
:1017C000B70700609387C70223A0E700130000005B
:1017D000B70700609387470383A70700E39A07FED4
:1017E000B707006093878702372700001307F7D1F8
:1017F00023A0E700B70700609387C7021307000123
:1018000023A0E70013000000B70700609387470399
:1018100083A70700E39A07FEB787FFFF9387070FA9
:101820002311F4FEB7070060938787023727000073
:10183000130727D123A0E700835724FE139707013E
:1018400013570701B70700609387C70223A0E7007B
:1018500013000000B70700609387470383A70700C2
:10186000E39A07FEB7871E00938707482326F4FEF6
:101870006F008007B7070060938787023727000053
:10188000130727D123A0E700B7070060938747021B
:101890001307100023A0E70013000000B707006043
:1018A0009387470383A70700E39A07FEB707006003
:1018B0009387070383A707009397070193D707012F
:1018C0002314F4FEB70700609387470223A00700A4
:1018D000835784FE9397070193D7070193970701D6
:1018E00093D7074163DC07008327C4FE1387F7FF04
:1018F0002326E4FEE39007F86F0080001300000049
:101900008327C4FE63980700B73700801385470B11
:10191000EFE00FEFB70700609387870237270000DB
:101920001307F7D123A0E700B70700609387C7022A
:1019300023A0070013000000B70700609387470348
:1019400083A70700E39A07FEB70700609387870223
:1019500037270000130707D023A0E700B707006070
:10196000938747021307100023A0E700130000002D
:10197000B70700609387470383A70700E39A07FE32
:10198000B70700609387070383A7070093970701B2
:1019900093D707012315F4FEB7070060938747022A
:1019A00023A007008357A4FE1397070113570701CD
:1019B000B787FFFFB367F7009397070193D7070136
:1019C0002315F4FEB70700609387870237270000CE
:1019D000130707D023A0E7008357A4FE139707013E
:1019E00013570701B70700609387C70223A0E700DA
:1019F00013000000B70700609387470383A7070021
:101A0000E39A07FEB7871E00938707482326F4FE54
:101A10006F008007B70700609387870237270000B1
:101A2000130707D023A0E700B7070060938747029A
:101A30001307100023A0E70013000000B7070060A1
:101A40009387470383A70700E39A07FEB707006061
:101A50009387070383A707009397070193D707018D
:101A60002314F4FEB70700609387470223A0070002
:101A7000835784FE9397070193D707019397070134
:101A800093D7074163DC07008327C4FE1387F7FF62
:101A90002326E4FEE39007F86F00800013000000A7
:101AA0008327C4FE63980700B73700801385870F2C
:101AB000EFE00FD5B7070060938787023727000054
:101AC000130707D023A0E700B707006093874702FA
:101AD0001307100023A0E70013000000B707006001
:101AE0009387470383A70700E39A07FEB7070060C1
:101AF0009387070383A707009397070193D70701ED
:101B00002314F4FEB70700609387470223A0070061
:101B1000835764FE835744FE835784FE8320C101AC
:101B2000032481011301010267800000130101FEFB
:101B3000232E1100232C810013040102B70701009A
:101B40009387F7FF2326F4FEB73700601307500092
:101B500023A0E700B737006093874700377700007E
:101B60001307172023A0E700B73700609387070407
:101B7000376760601307C70323A0E700B73700602B
:101B8000938747043707C0B123A0E700B737006049
:101B90009387870437070100130707F023A0E700A6
:101BA000B73700609387C7043707FF0F23A0E7000C
:101BB000B737006093870705370700041307071836
:101BC00023A0E700B73700609387470537078106F2
:101BD0001307F7FF23A0E700B73700609387870557
:101BE00023A00700B73700609387C70537070800B1
:101BF0001307F7FF23A0E700B73700609387071CA0
:101C00001307F00023A0E700B737006093870702AF
:101C10001307700023A0E700B7370060938707021F
:101C200083A707002326F4FEEFF0DF9613000000E1
:101C30008320C10103248101130101026780000098
:101C4000130101FD23261102232481021304010341
:101C5000930610001306A002B7150060B747008076
:101C6000138507F9EF005069B737008013854713D4
:101C7000EFE00FB9B737008013854716EFE04FB894
:101C8000EF000035B737008013854719EFE04FB7F5
:101C9000B73700801385471BEFE08FB6370500602C
:101CA000EFE08FC7B73700801385071DEFE04FB512
:101CB000EFF08FA9B73700801385071FEFE04FB40F
:101CC00037050060EFE08FE9B73700801385872084
:101CD000EFE00FB337350060EFE00FC4B737008097
:101CE00013854722EFE0CFB1EFF05FE4B737008014
:101CF00013854724EFE0CFB0B73700801385C725A1
:101D0000EFE00FB0EFE09F86B737008013854728DC
:101D1000EFE00FAFB73700801385072AEFE04FAE33
:101D2000EFF0CFB3B73700801385C72CEFE04FAD8E
:101D3000B73700801385C72EEFE08FACEFE09F9898
:101D4000B737008013854731EFE08FABB73700809E
:101D500013858733EFE0CFAAEFF0CFC5B737008008
:101D600013850736EFE0CFA9B737008013864738D1
:101D70009305C00137050060EFE04FF0B7370080F2
:101D8000138647399305200137050060EFE00FEF18
:101D9000B73700801386073A9305D00137050060F6
:101DA000EFE0CFEDB73700801386073B9305300196
:101DB00037050060EFE08FECB73700801385C73B35
:101DC000EFE00FA4B737006083A707002324F4FED9
:101DD000032584FEEFE04FB4B7370080138587FEFC
:101DE000EFE00FA2B73700801385473EEFE04FA129
:101DF000232604FE232E04FC6F0000018327C4FD6C
:101E000093871700232EF4FC0327C4FDB7177A002D
:101E10009387F71FE3F4E7FE130610009305C00154
:101E200037050060EFE0CFC8930705002313F4FEE9
:101E3000130610009305200137050060EFE04FC73F
:101E4000930705002312F4FE130610009305D0013A
:101E500037050060EFE0CFC5930705002311F4FEBE
:101E6000130610009305300137050060EFE04FC402
:101E7000930705002310F4FEB73700801385474110
:101E8000EFE00F988327C4FE138717002326E4FE94
:101E900013850700EFE08FADB73700801385074249
:101EA000EFE00F96835764FE13850700EFE0CF98AD
:101EB000B737008013858742EFE08F94835744FE45
:101EC00013850700EFE04F97B7370080138507436E
:101ED000EFE00F93835724FE13850700EFE0CF95C3
:101EE000B737008013858743EFE08F91835704FE57
:101EF00013850700EFE04F94B73700801385074440
:101F0000EFE00F90835764FE93D727009397070164
:101F100093D7070193F7170013850700EFE00FA58C
:101F2000835744FE93D727009397070193D7070160
:101F300093F7170013850700EFE04FA3835724FEA4
:101F400093D727009397070193D7070193F71700BB
:101F500013850700EFE08FA1835704FE93D7270076
:101F60009397070193D7070193F71700138507008D
:101F7000EFE0CF9FB737008013850745EFE04F882C
:101F80006FF05FE7130101FD2326810213040103B3
:101F9000232EA4FCB7676202138707A08327C4FD22
:101FA000B357F7022326F4FE6F0000018327C4FE17
:101FB0009387F7FF2326F4FE8327C4FEE39807FEEA
:101FC000130000000324C102130101036780000015
:101FD000130101FD232611022324810213040103AE
:101FE000232404FE232204FE93071000230CF4FC98
:101FF000A30C04FC13060002B7250060B74700805D
:10200000138587F9EF00805FB7470080138587F954
:10201000EF00C07093050000B7470080138587F973
:10202000EF00C07A230C04FC9307F007A30CF4FC28
:10203000B7870000938507F0B7470080138587F9BD
:10204000EF001015B7850000B7470080138587F9AA
:10205000EF0010142322A4FE832744FE93F7F70F0A
:102060002320F4FE032704FE9307F009E31CF7FC8A
:102070009307F02F2324F4FEB76700009387B71B64
:10208000232EF4FC8325C4FDB7470080138587F910
:10209000EF001010232604FE6F0040078327C4FEC4
:1020A00013978700B7870000938707F0B377F7008F
:1020B00037370080930687460327C4FE3387E60040
:1020C00003470700B3E7E700232EF4FC8325C4FD94
:1020D000B7470080138587F9EF00900B0327C4FEF4
:1020E000930700016318F70013050004EFF09FE960
:1020F0006F000001B717000013850780EFF09FE81D
:102100008327C4FE938717002326F4FE0327C4FE0B
:10211000832784FEE364F7F8B76700009387B71B53
:10212000232EF4FC8325C4FDB7470080138587F96F
:10213000EF00100693050000B7470080138587F96C
:10214000EF00C076130000008320C1020324810247
:102150001301010367800000130101FF23268100A2
:1021600013040101B767000003A70702B767000067
:102170001377D7FF23A0E702130000000324C10058
:102180001301010167800000130101FE232E1100DD
:10219000232C81001304010293070008F3B7473092
:1021A0002326F4FEEF000031B7C70002938787FFB4
:1021B00003A8470083A7070037470080832507F857
:1021C000032647F837450002B386B7009388060018
:1021D000B3B8F8003307C800B387E80013870700D7
:1021E00093870600130807002320F500232205012A
:1021F00093070008F3A747302324F4FE13000000E0
:102200008320C101032481011301010267800000C2
:10221000130101FF2326110023248100130401016F
:10222000EF00C027EFF05FF3130000008320C10030
:10223000032481001301010167800000130101FEE6
:10224000232E1100232C8100130401022326A4FE57
:102250002324B4FE8327C4FE63D207020327C4FEEF
:10226000B707008093C7F7FF3377F7009307B000F5
:102270006316F700EF00C0256F00C01C8327C4FE63
:1022800063D207020327C4FEB707008093C7F7FF96
:102290003377F700930730006316F700EFF05FF72E
:1022A0006F00401A8327C4FE63D207020327C4FECF
:1022B000B707008093C7F7FF3377F70093077000E5
:1022C0006316F700EFF05FEC6F00C0178327C4FEC2
:1022D00063D207020327C4FEB707008093C7F7FF46
:1022E0003377F700930780016316F700EF00002EA5
:1022F0006F0040158327C4FE63D207020327C4FE84
:10230000B707008093C7F7FF3377F7009307900173
:102310006316F700EF00C0296F00C0128327C4FEC8
:1023200063D207020327C4FEB707008093C7F7FFF5
:102330003377F7009307A0016316F700EF008025BD
:102340006F0040108327C4FE63D207020327C4FE38
:10235000B707008093C7F7FF3377F7009307B00103
:102360006316F700EF0040216F00C00D8327C4FE05
:1023700063D207020327C4FEB707008093C7F7FFA5
:102380003377F7009307C0016316F700EF00001DD5
:102390006F00400B8327C4FE63D207020327C4FEED
:1023A000B707008093C7F7FF3377F7009307D00193
:1023B0006316F700EF00C0186F00C0088327C4FE43
:1023C00063D207020327C4FEB707008093C7F7FF55
:1023D0003377F7009307E0016316F700EF008014EE
:1023E0006F0040068327C4FE63D207020327C4FEA2
:1023F000B707008093C7F7FF3377F7009307000113
:102400006316F700EF0040106F00C0038327C4FE7F
:1024100063D207020327C4FEB707008093C7F7FF04
:102420003377F700930710016316F700EF00000CF5
:102430006F0040018327C4FE9387170013850700B0
:10244000EF00801A130000008320C10103248101E2
:102450001301010267800000130101FF2326110010
:102460002324810013040101EFF08FFD130000000D
:102470008320C10003248100130101016780000053
:10248000130101FF23268100130401011300000042
:102490000324C1001301010167800000130101FF43
:1024A0002326110023248100130401011305A00039
:1024B000EF008013130101FF2326810013040101A3
:1024C000130000000324C100130101016780000014
:1024D000130101FF232681001304010113000000F2
:1024E0000324C1001301010167800000130101FFF3
:1024F0002326810013040101130000000324C100FE
:102500001301010167800000130101FF23268100F0
:1025100013040101130000000324C1001301010191
:1025200067800000130101FF2326810013040101CD
:10253000130000000324C1001301010167800000A3
:10254000130101FF23268100130401011300000081
:102550000324C1001301010167800000130101FF82
:102560002326810013040101130000000324C1008D
:102570001301010167800000130101FF2326810080
:1025800013040101130000000324C1001301010121
:1025900067800000130101FF23268100130401015D
:1025A000130000000324C100130101016780000033
:1025B000130101FF23268100130401011300000011
:1025C0000324C1001301010167800000130101FF12
:1025D0002326810013040101130000000324C1001D
:1025E0001301010167800000130101FE232E810009
:1025F000130401022326A4FE6F000000130101FE54
:10260000232E1100232C8100130401022326A4FE93
:102610002324B4FE930706002313F4FE8327C4FE8D
:102620006384070E832784FE6380070E1306C004AD
:10263000930500000325C4FEEF00900A8327C4FE23
:10264000032784FE23A0E700035764FE93070002DC
:1026500063EEE700835764FE638A07008327C4FEA6
:10266000035764FE2392E7046F0000018327C4FE32
:10267000130710002392E7048327C4FE83A70700F3
:102680009306000013061000930500001385070051
:10269000EF0090018327C4FE83A7070093874702BA
:1026A0009305000013850700EF00007F8327C4FE19
:1026B00083A707009387C7019305300013850700A0
:1026C000EF00807D8327C4FE83A707009387470020
:1026D0009305F00F13850700EF00007C8327C4FEED
:1026E00083A70700938787019305000013850700E0
:1026F000EF00807A8327C4FE83A70700930530008C
:1027000013850700EF004079130000008320C1010A
:10271000032481011301010267800000130101FEFF
:10272000232E1100232C8100130401022326A4FE72
:102730008327C4FE638207088327C4FE83A707009C
:102740009306000013061000930500001385070090
:10275000EF0080758327C4FE23A407048327C4FEEB
:1027600083A707009387C7019305300013850700EF
:10277000EF0080728327C4FE83A70700938747007A
:102780009305F00F13850700EF0000718327C4FE47
:1027900083A707009387870193050000138507002F
:1027A000EF00806F8327C4FE83A7070093053000E6
:1027B00013850700EF00406E130000008320C10165
:1027C000032481011301010267800000130101FD50
:1027D000232611022324810213040103232EA4FCC7
:1027E000232CB4FC232604FE8327C4FD6386070A3A
:1027F000032784FD9307700063E0E70A8327C4FD85
:1028000083A7070013062000930510001385070017
:10281000EF00006C93070500638007088327C4FD61
:1028200083A7070093870702130600019305400062
:1028300013850700EF00C0699307050013870700A1
:10284000930710006316F7000325C4FDEF00C021B5
:102850008327C4FD83A707009387470213850700DA
:10286000EF0000649307050093860700832784FD2B
:1028700013071000B317F700B3E7F6002326F4FEA2
:102880008327C4FD83A70700938747028325C4FEDF
:1028900013850700EF004060130000008320C10291
:1028A000032481021301010367800000130101FD6D
:1028B000232611022324810213040103232EA4FCE6
:1028C000232CB4FC232604FE8327C4FD6388070A57
:1028D000032784FD9307700063E2E70A8327C4FDA2
:1028E00083A7070013062000930510001385070037
:1028F000EF00005E93070500638207088327C4FD8D
:1029000083A7070093870702130600019305400081
:1029100013850700EF00C05B9307050013870700CE
:10292000930710006316F7000325C4FDEF00C013E2
:102930008327C4FD83A707009387470213850700F9
:10294000EF0000569307050093860700832784FD58
:1029500013071000B317F70093C7F7FFB3F7F6009C
:102960002326F4FE8327C4FD83A70700938747022D
:102970008325C4FE13850700EF00005213000000FA
:102980008320C10203248102130101036780000038
:10299000130101FD232611022324810213040103E4
:1029A000232EA4FC232CB4FC232604FE8327C4FD81
:1029B0006380070A8327C4FD83A70700130620004E
:1029C0009305100013850700EF0080509307050062
:1029D000638007088327C4FD83A707009387C70187
:1029E0009305300013850700EF00004B8327C4FDDB
:1029F00083A7070093878702832584FD138507003B
:102A0000EF008040130000008327C4FD83A7070068
:102A10009387070213062000930510001385070013
:102A2000EF00004B93070500138707009307100082
:102A3000E31CF7FC8327C4FD83A707009387870067
:102A400013850700EF00C03C930705002326F4FE22
:102A50008327C4FE138507008320C102032481025B
:102A60001301010367800000130101FE232E1100F2
:102A7000232C8100130401022326A4FE8327C4FE15
:102A800083A70700930600001306100093050000BB
:102A900013850700EF0040418327C4FE83A707008A
:102AA0009387C7019305300013850700EF00C03EF0
:102AB0008327C4FE83A70700938747009305F00F81
:102AC00013850700EF00403D8327C4FE83A707005E
:102AD00093061000130610009305000013850700ED
:102AE000EF00803C130000008320C101032481011A
:102AF0001301010267800000130101FD232611026A
:102B00002324810213040103232EA4FC232CB4FCF0
:102B10009307060013870600231BF4FC93070700A6
:102B2000A30AF4FC8327C4FD638A070C034754FD02
:102B30009307700063E4E70C035764FDB7270000B8
:102B4000637EF70A832784FD13878700835764FD1C
:102B500093F7F70F9385070013050700EF00C033C5
:102B6000832784FD9386C700034754FD835764FD84
:102B700093D7574093F7877FB367F7009385070094
:102B800013850600EF0040318327C4FD032784FD31
:102B900023A0E7008327C4FD83A7070093870701CD
:102BA00013850700EF00C02F9307050093F7270058
:102BB000A307F4FE6F0080038327C4FD83A70700EB
:102BC0009387470013850700EF00802D8327C4FDFE
:102BD00083A707009387070113850700EF00402CA8
:102BE0009307050093F72700A307F4FE8347F4FE3D
:102BF000E39407FC8327C4FD238207001300000031
:102C00008320C102032481021301010367800000B5
:102C1000130101FD23261102232481021304010361
:102C2000232EA4FC232CB4FC8327C4FD6380070857
:102C3000832784FD638C0706232604FE6F00C005EE
:102C40008327C4FD83A70700938707011385070027
:102C5000EF0000259307050093F71700A305F4FE86
:102C60008347B4FEE38E07FC8327C4FD83A60700D9
:102C7000032784FD8327C4FEB307F70083C707003B
:102C80009385070013850600EF0000218327C4FE0B
:102C9000938717002326F4FE032784FD8327C4FEB1
:102CA000B307F70083C70700E39C07F81300000091
:102CB0008320C10203248102130101036780000005
:102CC000735000307350403097100000938080AAFA
:102CD000F322103093F2120063960202F322503076
:102CE00093F2320013031000639E6200F32250300F
:102CF00093F2C2FF17130000130303A8639A620440
:102D00006F00000197120000938202A77390523067
:102D100017170000130707279717000093878726C8
:102D200017180000130808266308F70063860701D8
:102D300097000000E780800A97210000938181A41A
:102D4000EF004001172100001301C12A6FF0CFF0FE
:102D5000730010009382000093870181138801871C
:102D600063840701EF0040059717000093878721D0
:102D700013880181638C0701EF00000493870187AA
:102D80001388010763840701EF0000031717000091
:102D90001307471F971700009387C71E17180000D7
:102DA0001308481E6306F70063840701EF00C002A2
:102DB00093800200678000006364F804B368F80041
:102DC00093F83800634E100323A007009387470051
:102DD000E3CC07FF678000006364F802B368F80083
:102DE00093F83800634E10018328070023A01701D1
:102DF0009387470013074700E3C807FF6F00800071
:102E00006F000000678000002320B500678000008D
:102E10000325050067800000138E0600331EBE00E8
:102E2000337ECE00032305009303060093C3F3FF14
:102E3000337373003363C301232065006780000090
:102E4000032505003375C5003355B50067800000C4
:102E50002310B5006780000003150500678000009F
:102E6000138E0600331EBE00337ECE000313050012
:102E70009303060093C3F3FF337373003363C301FB
:102E80002310650067800000031505003375C50039
:102E90003355B500678000002300B500678000004F
:102EA0000305050067800000138E0600331EBE0078
:102EB000337ECE00030305009303060093C3F3FFA4
:102EC000337373003363C301230065006780000020
:102ED000030505003375C5003355B5006780000054
:102EE0001303F00013070500637EC3029377F70016
:102EF0006390070A63920508937606FF1376F6003F
:102F0000B386E6002320B7002322B7002324B700AE
:102F10002326B70013070701E366D7FE63140600F4
:102F200067800000B306C340939626009702000016
:102F3000B38656006780C6002307B700A306B70014
:102F40002306B700A305B7002305B700A304B70005
:102F50002304B700A303B7002303B700A302B700FD
:102F60002302B700A301B7002301B700A300B700F5
:102F70002300B7006780000093F5F50F9396850056
:102F8000B3E5D50093960501B3E5D5006FF0DFF604
:102F90009396270097020000B386560093820000A4
:102FA000E78006FA93800200938707FF3307F74014
:102FB0003306F600E378C3F66FF0DFF3000000009D
:102FC0005B7363616E5D207377656570696E672002
:102FD0004D44494F20302E2E3331207669612054E4
:102FE00053452040200000000D0A00005B73636120
:102FF0006E5D202020616464723D00002020494401
:10300000313D000020204944323D00005B73636184
:103010006E5D20646F6E650D0A0000005B73746165
:1030200074655D2000000000205048592000000019
:10303000207374617475733D00000000206C696E2C
:103040006B3D000020616E65675F646F6E653D00DB
:103050005B706879315D205741524E494E473A20A6
:103060005048592032392049442072656769737489
:103070006572207265616473206173200000000036
:10308000202F200020E2809420504859206C696B4A
:10309000656C7920616273656E742C20736B697046
:1030A00070696E6720706879315F696E69740D0AA6
:1030B000000000005B706879315D205741524E4935
:1030C0004E473A2074696D656F7574207761697435
:1030D000696E6720666F722050485920323920721D
:1030E0006567203078313220626974203135206381
:1030F0006C6561720D0A00005B706879315D205764
:1031000041524E494E473A2074696D656F7574207F
:1031100077616974696E6720666F72205048592024
:10312000323920726573657420636F6D706C6574DD
:10313000650D0A000D0A0D0A5B626F6F745D2069F0
:103140006E7465726C6F636B206669726D77617205
:103150006520697465722D32207374617274696EB2
:10316000670D0A005B626F6F745D20636F6E666946
:10317000677572655F7A6C33303336342028636C40
:103180006F636B2067656E657261746F72290D0ADB
:10319000000000005B626F6F745D20636F6E666994
:1031A000677572655F7A6C333033363420646F6EC6
:1031B000650D0A005B626F6F745D207473655F69F3
:1031C0006E697420284D41432030204020000000CB
:1031D0002C2050485920323820636F70706572205F
:1031E0002F2031382053474D4949290D0A0000004E
:1031F0005B626F6F745D207473655F696E697420C4
:10320000646F6E650D0A00005B626F6F745D207401
:103210007365315F696E697420284D414320312008
:10322000402000002C2050485920323920636F7014
:10323000706572202F2031392053474D4949290D9F
:103240000A0000005B626F6F745D20747365315F0C
:10325000696E697420646F6E650D0A005B626F6F42
:10326000745D205068795F61647665727469736516
:103270002028706F727420302C205048592032382A
:10328000290D0A005B626F6F745D205068795F6181
:10329000647665727469736520646F6E650D0A00EB
:1032A0005B626F6F745D20506879315F6164766531
:1032B00072746973652028706F727420312C2050ED
:1032C0004859203239290D0A000000005B626F6FF7
:1032D000745D20506879315F6164766572746973DA
:1032E0006520646F6E650D0A000000005B626F6F01
:1032F000745D207068795F6175746F6E65676F7457
:10330000696174696F6E2028706F72742030290DA6
:103310000A0000005B626F6F745D207068795F6106
:1033200075746F6E65676F74696174696F6E206420
:103330006F6E650D0A0000005B626F6F745D207038
:103340006879315F6175746F6E65676F74696174F8
:10335000696F6E2028706F72742031290D0A000089
:103360005B626F6F745D20706879315F6175746F37
:103370006E65676F74696174696F6E20646F6E65E6
:103380000D0A0000706F72743020636F7070657288
:1033900000000000706F7274302053474D4949009F
:1033A000706F72743120636F70706572000000007E
:1033B000706F7274312053474D4949005B70726FD2
:1033C00062655D20436F72655453455F31204D4106
:1033D000435F434F4E4649475F31207265616473D6
:1033E000200000005B626F6F745D20696E6974205D
:1033F000636F6D706C65746520E2809420706F6CF3
:103400006C696E6720626F746820706F7274730DE0
:103410000A0000005B706F6C6C20743D00000000BF
:103420005D207030633D0000207030733D0000006F
:10343000207031633D000000207031733D000000BA
:1034400020286C696E6B20626974733A200000005A
:10345000290D0A003031323334353637383941429C
:1034600043444546000000001F4005000009F2FFEC
:10347000FFFFFF046AAAAB0000000000000000008C
:1034800001800300000000000000000000000000B8
:103490000000000000000000000000000000161600
:1034A0001616161616161616160000000000AAAA02
:1034B0002A0055551500000055555555555555557B
:1034C00055555500000000003333333333030000FB
:1034D000FF071B1B1B1BA01BA01B1B1B1B000000B3
:1034E00000000000000000019C4000FA0001000103
:1034F0009C4000FA000100019C4000FA000100011C
:103500009C4000FA000100010001000100010001DF
:103510009C4001E6000100010001000100010001E2
:103520009C400271000100019C40027100010001F9
:103530009C400C35000100019C400C35000100014D
:10354000000000000000000000000000000000007B
:103550000000000010325476980A000000000000BD
:103560000000000000000002E482003300FFFFFFC3
:10357000FFFF0F000087010B002270206400000095
:103580000005050000000000E487003300FFFFFF96
:10359000FFFF0F000087010B002270206400000075
:1035A00000050500000000000C00003300FF0FFFC5
:1035B000FFFF0F000087010B002270206400000055
:1035C00000050500000000000000000000000000F1
:1035D00000000000000000000000000000000000EB
:1035E00000000000000000030000030000000000D5
:1035F00000000000000000000000000000000000CB
:1036000000000000000000000000000000000000BA
:103610000014000000000000900F000000000000F7
:1036200061A809C40001000161A809C400010001EA
:1036300061A809C40001000161A809C400010001DA
:10364000000000000000000000000000000000007A
:10365000000000000000000000000000000000006A
:103660000000000000000004000004000008F2C395
:1036700050F3C350000002000064000064F3C35024
:103680000000080000080000640000280000080096
:10369000000800006400006400000000000000005A
:1036A000000000000000000000000000000000001A
:1036B00000000000000000000000000045000000C5
:1036C000000000000000000000BBFFFFFFFF000043
:1036D000600000000000000000000000000000008A
:1036E00000000000000000050000000000000000D5
:1036F00000000000000000000000000000000000CA
:1037000000000000000000000000000000000000B9
:1037100000000000000000000000000000000000A9
:103720000000000000000000000001FF0401FF0491
:1037300001FF040000000000000000000000000085
:103740000000000000000000000000000000000079
:103750000000000000000000000000000000000069
:103760000000000000000000000000000000000059
:103770006FF00FD56F00C0070000000000000000D0
:103780006F00C010000000000000000000000000FA
:103790006F00401800000000000000000000000062
:1037A0006F00C01F000000000000000000000000CB
:1037B000000000006F0000276F00402F0000000095
:1037C00000000000000000000000000000000000F9
:1037D000000000006F0000366F00403E6F00804622
:1037E0006F00C04E6F0000576F00405F6F00806732
:1037F000130101F813000000130000001300000083
:1038000023201100232221002324310023264100FC
:1038100023285100232A6100232C7100232E8100CC
:10382000232091022322A1022324B1022326C102D4
:103830002328D102232AE102232CF102232E0103A3
:1038400023201105232221052324310523264105A8
:1038500023285105232A6105232C7105232E810578
:10386000232091072322A1072324B1072326C10780
:103870002328D107232AE107232CF10773252034BD
:10388000F3251034EFE09F9B6F004066130101F8B1
:10389000232011002322210023243100232641006C
:1038A00023285100232A6100232C7100232E81003C
:1038B000232091022322A1022324B1022326C10244
:1038C0002328D102232AE102232CF102232E010313
:1038D0002320110523222105232431052326410518
:1038E00023285105232A6105232C7105232E8105E8
:1038F000232091072322A1072324B1072326C107F0
:103900002328D107232AE107232CF107EFE05F905A
:103910006F00C05D130101F8232011002322210054
:10392000232431002326410023285100232A61004B
:10393000232C7100232E8100232091022322A10237
:103940002324B1022326C1022328D102232AE10223
:10395000232CF102232E010323201105232221050C
:10396000232431052326410523285105232A6105F7
:10397000232C7105232E8105232091072322A107E3
:103980002324B1072326C1072328D107232AE107CF
:10399000232CF107EFE04FFF6F004055130101F8B2
:1039A000232011002322210023243100232641005B
:1039B00023285100232A6100232C7100232E81002B
:1039C000232091022322A1022324B1022326C10233
:1039D0002328D102232AE102232CF102232E010302
:1039E0002320110523222105232431052326410507
:1039F00023285105232A6105232C7105232E8105D7
:103A0000232091072322A1072324B1072326C107DE
:103A10002328D107232AE107232CF107EFE05FAB2E
:103A20006F00C04C130101F8232011002322210054
:103A3000232431002326410023285100232A61003A
:103A4000232C7100232E8100232091022322A10226
:103A50002324B1022326C1022328D102232AE10212
:103A6000232CF102232E01032320110523222105FB
:103A7000232431052326410523285105232A6105E6
:103A8000232C7105232E8105232091072322A107D2
:103A90002324B1072326C1072328D107232AE107BE
:103AA000232CF107EFE05FA66F004044130101F8FB
:103AB000232011002322210023243100232641004A
:103AC00023285100232A6100232C7100232E81001A
:103AD000232091022322A1022324B1022326C10222
:103AE0002328D102232AE102232CF102232E0103F1
:103AF00023201105232221052324310523264105F6
:103B000023285105232A6105232C7105232E8105C5
:103B1000232091072322A1072324B1072326C107CD
:103B20002328D107232AE107232CF107EFE01F9C6C
:103B30006F00C03B130101F8232011002322210054
:103B4000232431002326410023285100232A610029
:103B5000232C7100232E8100232091022322A10215
:103B60002324B1022326C1022328D102232AE10201
:103B7000232CF102232E01032320110523222105EA
:103B8000232431052326410523285105232A6105D5
:103B9000232C7105232E8105232091072322A107C1
:103BA0002324B1072326C1072328D107232AE107AD
:103BB000232CF107EFE09FA16F004033130101F8C0
:103BC0002320110023222100232431002326410039
:103BD00023285100232A6100232C7100232E810009
:103BE000232091022322A1022324B1022326C10211
:103BF0002328D102232AE102232CF102232E0103E0
:103C000023201105232221052324310523264105E4
:103C100023285105232A6105232C7105232E8105B4
:103C2000232091072322A1072324B1072326C107BC
:103C30002328D107232AE107232CF107EFE05F9720
:103C40006F00C02A130101F8232011002322210054
:103C5000232431002326410023285100232A610018
:103C6000232C7100232E8100232091022322A10204
:103C70002324B1022326C1022328D102232AE102F0
:103C8000232CF102232E01032320110523222105D9
:103C9000232431052326410523285105232A6105C4
:103CA000232C7105232E8105232091072322A107B0
:103CB0002324B1072326C1072328D107232AE1079C
:103CC000232CF107EFE01F8D6F004022130101F854
:103CD0002320110023222100232431002326410028
:103CE00023285100232A6100232C7100232E8100F8
:103CF000232091022322A1022324B1022326C10200
:103D00002328D102232AE102232CF102232E0103CE
:103D100023201105232221052324310523264105D3
:103D200023285105232A6105232C7105232E8105A3
:103D3000232091072322A1072324B1072326C107AB
:103D40002328D107232AE107232CF107EFE0DF82A4
:103D50006F00C019130101F8232011002322210054
:103D6000232431002326410023285100232A610007
:103D7000232C7100232E8100232091022322A102F3
:103D80002324B1022326C1022328D102232AE102DF
:103D9000232CF102232E01032320110523222105C8
:103DA000232431052326410523285105232A6105B3
:103DB000232C7105232E8105232091072322A1079F
:103DC0002324B1072326C1072328D107232AE1078B
:103DD000232CF107EFE08FF86F004011130101F879
:103DE0002320110023222100232431002326410017
:103DF00023285100232A6100232C7100232E8100E7
:103E0000232091022322A1022324B1022326C102EE
:103E10002328D102232AE102232CF102232E0103BD
:103E200023201105232221052324310523264105C2
:103E300023285105232A6105232C7105232E810592
:103E4000232091072322A1072324B1072326C1079A
:103E50002328D107232AE107232CF107EFE04FEEB7
:103E60006F00C008130101F8232011002322210054
:103E7000232431002326410023285100232A6100F6
:103E8000232C7100232E8100232091022322A102E2
:103E90002324B1022326C1022328D102232AE102CE
:103EA000232CF102232E01032320110523222105B7
:103EB000232431052326410523285105232A6105A2
:103EC000232C7105232E8105232091072322A1078E
:103ED0002324B1072326C1072328D107232AE1077A
:103EE000232CF107EFE00FE46F0040008320010076
:103EF00003214100832181000322C10083220101AB
:103F000003234101832381010324C101832401028E
:103F100003254102832581020326C1028326010372
:103F200003274103832781030328C1038328010456
:103F30000329410483298104032AC104832A01053A
:103F4000032B4105832B8105032CC105832C01061E
:103F5000032D4106832D8106032EC106832E010702
:103F6000032F4107832F81071301010873002030BD
:043F7000000000004D
:0400000580003770D0
:00000001FF
