:100000006F0010016F00C00700000000000000003A
:100010006F00C010000000000000000000000000A1
:100020006F00401800000000000000000000000009
:100030006F00C01F00000000000000000000000072
:10004000000000006F0000276F00402F000000003C
:1000500000000000000000000000000000000000A0
:10006000000000006F0000366F00403E6F008046C9
:100070006F00C04E6F0000576F00405F6F008067D9
:10008000130101F81300000013000000130000002A
:1000900023201100232221002324310023264100A4
:1000A00023285100232A6100232C7100232E810074
:1000B000232091022322A1022324B1022326C1027C
:1000C0002328D102232AE102232CF102232E01034B
:1000D0002320110523222105232431052326410550
:1000E00023285105232A6105232C7105232E810520
:1000F000232091072322A1072324B1072326C10728
:100100002328D107232AE107232CF1077325203464
:10011000F3251034EF00100D6F004066130101F855
:100120002320110023222100232431002326410013
:1001300023285100232A6100232C7100232E8100E3
:10014000232091022322A1022324B1022326C102EB
:100150002328D102232AE102232CF102232E0103BA
:1001600023201105232221052324310523264105BF
:1001700023285105232A6105232C7105232E81058F
:10018000232091072322A1072324B1072326C10797
:100190002328D107232AE107232CF107EF001002BF
:1001A0006F00C05D130101F82320110023222100FC
:1001B000232431002326410023285100232A6100F3
:1001C000232C7100232E8100232091022322A102DF
:1001D0002324B1022326C1022328D102232AE102CB
:1001E000232CF102232E01032320110523222105B4
:1001F000232431052326410523285105232A61059F
:10020000232C7105232E8105232091072322A1078A
:100210002324B1072326C1072328D107232AE10776
:10022000232CF107EF0040736F004055130101F8D4
:100230002320110023222100232431002326410002
:1002400023285100232A6100232C7100232E8100D2
:10025000232091022322A1022324B1022326C102DA
:100260002328D102232AE102232CF102232E0103A9
:1002700023201105232221052324310523264105AE
:1002800023285105232A6105232C7105232E81057E
:10029000232091072322A1072324B1072326C10786
:1002A0002328D107232AE107232CF107EF001000B0
:1002B0006F00C04C130101F82320110023222100FC
:1002C000232431002326410023285100232A6100E2
:1002D000232C7100232E8100232091022322A102CE
:1002E0002324B1022326C1022328D102232AE102BA
:1002F000232CF102232E01032320110523222105A3
:10030000232431052326410523285105232A61058D
:10031000232C7105232E8105232091072322A10779
:100320002324B1072326C1072328D107232AE10765
:10033000232CF107EF0000786F004044130101F80F
:1003400023201100232221002324310023264100F1
:1003500023285100232A6100232C7100232E8100C1
:10036000232091022322A1022324B1022326C102C9
:100370002328D102232AE102232CF102232E010398
:10038000232011052322210523243105232641059D
:1003900023285105232A6105232C7105232E81056D
:1003A000232091072322A1072324B1072326C10775
:1003B0002328D107232AE107232CF107EF00406F00
:1003C0006F00C03B130101F82320110023222100FC
:1003D000232431002326410023285100232A6100D1
:1003E000232C7100232E8100232091022322A102BD
:1003F0002324B1022326C1022328D102232AE102A9
:10040000232CF102232E0103232011052322210591
:10041000232431052326410523285105232A61057C
:10042000232C7105232E8105232091072322A10768
:100430002324B1072326C1072328D107232AE10754
:10044000232CF107EF00C0686F004033130101F85F
:1004500023201100232221002324310023264100E0
:1004600023285100232A6100232C7100232E8100B0
:10047000232091022322A1022324B1022326C102B8
:100480002328D102232AE102232CF102232E010387
:10049000232011052322210523243105232641058C
:1004A00023285105232A6105232C7105232E81055C
:1004B000232091072322A1072324B1072326C10764
:1004C0002328D107232AE107232CF107EF0000603E
:1004D0006F00C02A130101F82320110023222100FC
:1004E000232431002326410023285100232A6100C0
:1004F000232C7100232E8100232091022322A102AC
:100500002324B1022326C1022328D102232AE10297
:10051000232CF102232E0103232011052322210580
:10052000232431052326410523285105232A61056B
:10053000232C7105232E8105232091072322A10757
:100540002324B1072326C1072328D107232AE10743
:10055000232CF107EF0040576F004022130101F8F0
:1005600023201100232221002324310023264100CF
:1005700023285100232A6100232C7100232E81009F
:10058000232091022322A1022324B1022326C102A7
:100590002328D102232AE102232CF102232E010376
:1005A000232011052322210523243105232641057B
:1005B00023285105232A6105232C7105232E81054B
:1005C000232091072322A1072324B1072326C10753
:1005D0002328D107232AE107232CF107EF00804EBF
:1005E0006F00C019130101F82320110023222100FC
:1005F000232431002326410023285100232A6100AF
:10060000232C7100232E8100232091022322A1029A
:100610002324B1022326C1022328D102232AE10286
:10062000232CF102232E010323201105232221056F
:10063000232431052326410523285105232A61055A
:10064000232C7105232E8105232091072322A10746
:100650002324B1072326C1072328D107232AE10732
:10066000232CF107EF00C0456F004011130101F882
:1006700023201100232221002324310023264100BE
:1006800023285100232A6100232C7100232E81008E
:10069000232091022322A1022324B1022326C10296
:1006A0002328D102232AE102232CF102232E010365
:1006B000232011052322210523243105232641056A
:1006C00023285105232A6105232C7105232E81053A
:1006D000232091072322A1072324B1072326C10742
:1006E0002328D107232AE107232CF107EF00003D3F
:1006F0006F00C008130101F82320110023222100FC
:10070000232431002326410023285100232A61009D
:10071000232C7100232E8100232091022322A10289
:100720002324B1022326C1022328D102232AE10275
:10073000232CF102232E010323201105232221055E
:10074000232431052326410523285105232A610549
:10075000232C7105232E8105232091072322A10735
:100760002324B1072326C1072328D107232AE10721
:10077000232CF107EF0040346F004000832001007C
:1007800003214100832181000322C1008322010152
:1007900003234101832381010324C1018324010236
:1007A00003254102832581020326C102832601031A
:1007B00003274103832781030328C10383280104FE
:1007C0000329410483298104032AC104832A0105E2
:1007D000032B4105832B8105032CC105832C0106C6
:1007E000032D4106832D8106032EC106832E0107AA
:1007F000032F4107832F8107130101087300203065
:1008000000000000000000000000000000000000E8
:10081000735000307350403097F0FFFF9380807E1C
:10082000F322103093F2120063960202F32250304A
:1008300093F2320013031000639E6200F3225030E3
:1008400093F2C2FF17F3FFFF1303037C639A620462
:100850006F00000197F2FFFF9382027B739052308A
:10086000173700001307079D973700009387879C71
:10087000173800001308089C6308F7006386070117
:1008800097000000E780800A973100009381811A69
:10089000EF004001174100001301C1A06F00401F8D
:1008A00073001000938200009387018113880187F1
:1008B00063840701EF00400597370000938787970F
:1008C00013880181638C0701EF000004938701877F
:1008D0001388010763840701EF0000031737000046
:1008E00013074795973700009387C7941738000080
:1008F000130848946306F70063840701EF00C00201
:1009000093800200678000006364F804B368F80015
:1009100093F83800634E100323A007009387470025
:10092000E3CC07FF678000006364F802B368F80057
:1009300093F83800634E10018328070023A01701A5
:100940009387470013074700E3C807FF6F00800045
:100950006F00000067800000130101FF2324810065
:100960002326110013040008F3374430EF00C013AE
:10097000B736008037C7000293860623832787FF98
:100980000326C7FF03A7060083A64600B74500025B
:100990003387E700B337F700B306D600B387D70035
:1009A00023A0E50023A2F500732444308320C10076
:1009B000032481001301010167800000130101FF7E
:1009C00023261100EF00400D376700008327070240
:1009D0008320C10093F7D7FF2320F7021301010101
:1009E00067800000635E05089317150093D7170012
:1009F0001307B0006394E7006F00400B130730004B
:100A00006394E7006FF09FFB130770006394E700A7
:100A10006FF09FF4130780016394E7006F00400BB1
:100A2000130790016394E7006F00400A1307A001C9
:100A30006394E7006F0040091307B0016394E70077
:100A40006F0040081307C0016394E7006F00400780
:100A50001307D0016394E7006F0040061307E0011D
:100A60006394E7006F004005130700016394E700FB
:100A70006F004004130710016394E7006F00400308
:100A8000130101FF1305150023261100EF00800458
:100A90006F10406567800000130101FF1305A0007F
:100AA00023261100EF00000367800000678000002C
:100AB000678000006780000067800000678000009A
:100AC000678000006780000067800000678000008A
:100AD000678000006F0000002320B50067800000E1
:100AE0000325050067800000138E0600331EBE003C
:100AF000337ECE00032305009303060093C3F3FF68
:100B0000337373003363C3012320650067800000E3
:100B1000032505003375C5003355B5006780000017
:100B20002310B500678000000315050067800000F2
:100B3000138E0600331EBE00337ECE000313050065
:100B40009303060093C3F3FF337373003363C3014E
:100B50002310650067800000031505003375C5008C
:100B60003355B500678000002300B50067800000A2
:100B70000305050067800000138E0600331EBE00CB
:100B8000337ECE00030305009303060093C3F3FFF7
:100B9000337373003363C301230065006780000073
:100BA000030505003375C5003355B50067800000A7
:100BB0006304050A9307700063E0D70AB7270000B3
:100BC000637CF608130101FE232C810023282101F8
:100BD0001304060013890500232A91009375F60F6C
:100BE000930405001354544013058900232E11006B
:100BF000232631011374847F93890600EFF0DFF61A
:100C00001305C900B3653401EFF01FF613050901A0
:100C100023A02401EFF0DFF5137525006312050210
:100C2000238204008320C101032481018324410124
:100C3000032901018329C10013010102678000001B
:100C400003A5040013054500EFF09FF203A504007F
:100C5000130505016FF01FFC6780000063020506A5
:100C600063800506130101FF2324810023229100E4
:100C70002326110093040500138405008347040014
:100C8000639C07008320C10003248100832441006A
:100C9000130101016780000003A50400130505018D
:100CA000EFF01FED13751500E30805FE8345040002
:100CB00003A5040013041400EFF01FEB6FF01FFCFA
:100CC00067800000130101FF232481001304050045
:100CD000032505009306000013061000930500008D
:100CE00023261100EFF05FE903250400930530008F
:100CF0001305C501EFF05FE7032504009305F00F2E
:100D000013054500EFF05FE603250400032481008E
:100D10008320C10093061000130610009305000005
:100D2000130101016FF05FE56302050E130101FF7E
:100D30002322910023261100232481002320210156
:100D4000938405006388050A13040500130906004F
:100D5000930500001306800413054500EF10902C46
:100D60009307F9FF939707012320940093D7070176
:100D70001307F0016374F7001309100093060000D5
:100D800013061000231224051385040093050000A8
:100D9000EFF09FDE032504009305000013054502D4
:100DA000EFF09FDC03250400930530001305C50117
:100DB000EFF09FDB032504009305F00F13054500BA
:100DC000EFF09FDA03250400930500001305850169
:100DD000EFF09FD903250400032481008320C10084
:100DE0008324410003290100930530001301010110
:100DF0006FF09FD78320C10003248100832441002A
:100E000003290100130101016780000067800000D1
:100E1000630A0506130101FF232481001304050062
:100E2000032505009306000013061000930500003B
:100E300023261100EFF05FD40325040023240404CB
:100E4000930530001305C501EFF01FD20325040000
:100E50009305F00F13054500EFF01FD103250400A3
:100E60009305000013058501EFF01FD00325040052
:100E7000032481008320C100930530001301010188
:100E80006FF09FCE678000006302050A9307700031
:100E900063EEB708130101FF23248100130405004A
:100EA00003250500232291001306200093840500EA
:100EB0009305100023261100EFF09FCE630E05046A
:100EC00003250400130600019305400013050502E5
:100ED000EFF01FCD930710006316F5001305040013
:100EE000EFF05FDE0325040013054502EFF05FC855
:100EF000832704009305100003248100B395950017
:100F00008320C10083244100B3E5A5001385470277
:100F1000130101016FF05FC58320C100032481002C
:100F200083244100130101016780000067800000F5
:100F30006304050A9307700063E0B70A130101FF19
:100F400023248100130405000325050023229100BA
:100F5000130620009384050093051000232611003A
:100F6000EFF01FC46300050603250400130600010B
:100F70009305400013050502EFF09FC29307100090
:100F80006316F50013050400EFF0DFD3032504001A
:100F900013054502EFF0DFBD832704009305100021
:100FA00003248100B39595008320C1008324410070
:100FB00093C5F5FFB3F5A5001385470213010101A1
:100FC0006FF09FBA8320C100032481008324410075
:100FD000130101016780000067800000130101FE1A
:100FE000232E1100232C8100232A910023260100A7
:100FF0006306050613040500032505009384050018
:101000001306200093051000EFF09FB96308050454
:1010100003250400930530001305C501EFF0DFB48C
:10102000032504009385040013058502EFF0DFAA71
:101030000325040013062000930510001305050284
:10104000EFF01FB693071000E314F5FE032504002C
:1010500013058500EFF0DFA82326A1008320C1013E
:10106000032481010325C1008324410113010102EE
:1010700067800000930505003735008013050524BF
:101080006FF0DFBDB787FFFF130101FE93C7078332
:101090002314F100B73700809387C7961357C50014
:1010A0003387E70003470700232E110023070100C1
:1010B0002305E100135785001377F7003387E70016
:1010C00003470700A305E100135745001377F70016
:1010D0001375F5003387E700B387A70003470700C0
:1010E00083C70700130581002306E100A306F10072
:1010F000EFF05FF88320C101130101026780000057
:10110000130101FF23248100130405001355050179
:1011100023261100EFF01FF71315040103248100AB
:101120008320C10013550501130101016FF09FF5E4
:10113000130101FE232E110023070100631605028F
:1011400093070003A306F10093078000138517009F
:10115000930741003385A700EFF0DFF18320C10141
:1011600013010102678000001307410093079000FC
:101170001306A00093059000B376C5029387F7FF8E
:101180001307F7FF938606032305D700B356C5025E
:10119000E3FEA5FA138506006FF01FFE1315850008
:1011A000B365B50093950501B707006093D5054178
:1011B00023A4B70213071000B785010023A2E7029A
:1011C00037050060930700009385056A03274503F0
:1011D000137777006306070093871700E398B7FE3D
:1011E0002320E60023A0F600B707006003A507034D
:1011F00023A207021315050113550501678000009E
:10120000130101FE232A9100930405003735008065
:1012100013050590232E1100232C81002328210182
:1012200013840500EFF01FE513850400EFF09FE441
:1012300037350080130545A8EFF0DFE31305040000
:10124000EFF01FEF9306C100130681009305000025
:1012500013050400EFF09FF4930405003735008078
:1012600013058590EFF01FE113850400EFF09FE177
:10127000B734008013850491EFF0DFDF0355810060
:10128000EFF05FE03735008013054591EFF09FDE0A
:101290000355C100EFF01FDF9306C1001306810064
:1012A0009305100013050400EFF05FEF130905002C
:1012B0003735008013058591EFF0DFDB130509005A
:1012C000EFF05FDC13850491EFF0DFDA0355810066
:1012D000EFF05FDB9306C100130681009305F00079
:1012E00013050400EFF09FEB13090500373500806C
:1012F00013050592EFF01FD813050900EFF09FD8F2
:1013000013850491EFF01FD703558100EFF09FD7AD
:101310009306C10013068100930510011305040014
:10132000EFF0DFE713040500373500801305C592A1
:10133000EFF05FD413050400EFF0DFD413850491C0
:10134000EFF05FD303558100EFF0DFD33735008036
:101350001305C5CBEFF01FD28320C1010324810107
:101360008324410103290101130101026780000068
:1013700013158500B365B50093950501B7070060A7
:1013800093D5054123A4B7021307100023A2E70257
:1013900003A74703E31E07FE03A5070323A20702D3
:1013A000131505011355050167800000130101FFA6
:1013B0002320210113890500930510002326110025
:1013C000232481002322910093040500EFF05FFAAB
:1013D000130405003735008013058593EFF09FC98E
:1013E00013050900EFF01FC9373500801305459438
:1013F000EFF05FC813850400EFF09FD3373500800E
:101400001305C594EFF01FC713050400EFF09FC745
:101410003735008013058595EFF0DFC5135524009F
:1014200013751500EFF0DFD03735008013050596F2
:10143000EFF05FC41355540013751500EFF05FCF44
:10144000032481008320C10083244100032901007B
:10145000373500801305C5CB130101016FF09FC123
:10146000B727000037070060938747C02324F7029F
:10147000930710002322F702B707006003A7470372
:10148000E31E07FE03A70703B726000023A20702F7
:10149000938646C023A4D702137717FE23A6E7023C
:1014A000B707006003A74703E31E07FE37270000C6
:1014B000130797C023A4E7021307100023A2E70233
:1014C000B707006003A74703E31E07FE03A7070350
:1014D000B726000023A20702938696C01367072051
:1014E00023A4D70223A6E702370700608327470318
:1014F000E39E07FE67800000B7470F00130101FF5E
:10150000938707242322F100B78701009387076A96
:101510002324F100B7270000370700609387F7C145
:101520002324F70223260702B707006003A7470317
:10153000E31E07FE37270000130707C023A4E702B6
:101540001307100023A2E702B707006003A74703B1
:10155000E31E07FE03A70703B716000093860620C5
:101560003367D700B726000023A20702938606C080
:1015700023A4D70223A6E702370700608327470387
:10158000E39E07FEB70700603727000093858702B8
:10159000130717C01305100023A0E50023A2A7021C
:1015A00083A64703E39E06FE83A6070323A2070242
:1015B0000326410093F606021306F6FF2322C1001C
:1015C0006396060083264100E39806FCB787010076
:1015D000232601009387F7690327C10063FCE71006
:1015E000B727000037070060938717C02324F7024E
:1015F000930710002322F702B707006003A74703F1
:10160000E31E07FE03A7070323A207021377470081
:10161000630E070C371700001307072023A4E70207
:101620001307100023A2E702B707006003A74703D0
:10163000E31E07FE83A607033717000023A2070255
:10164000B3E6E6001307072023A4E70223A6D70288
:10165000B707006003A74703E31E07FE3717000024
:101660001307072023A4E7021307100023A2E702B1
:10167000B707006003A74703E31E07FE03A707039E
:10168000B716000023A207029386062013670720DF
:1016900023A4D70223A6E702370700608327470366
:1016A000E39E07FEB70700603717000093858702A7
:1016B000130717201305100023A0E50023A2A7029B
:1016C00083A64703E39E06FE83A6070323A2070221
:1016D0000326810093F606021306F6FF2324C100B9
:1016E0006396060083268100E39806FC130101013E
:1016F000678000000327C100130717002326E100BD
:101700006FF09FED130101FF231501002316010067
:10171000B72700002317010037070060938727C011
:101720002324F702930710002322F702B707006073
:1017300003A74703E31E07FE03A7070313170701C9
:10174000135707012315E1003727000023A20702E2
:10175000130737C023A4E7021307100023A2E702F0
:10176000B707006003A74703E31E07FE03A70703AD
:1017700013170701135707012316E100372700004D
:1017800023A207021307F7C123A4E70213073000BF
:1017900023A6E702B707006003A74703E31E07FE7F
:1017A00037270000130707C123A4E702130710001F
:1017B00023A2E702B707006003A74703E31E07FE63
:1017C00003A7070313170701135707012317E100A6
:1017D00023A207020357E100136707082317E1005C
:1017E00037270000130707C123A4E7020357E100CE
:1017F000131707011357070123A6E702B707006075
:1018000003A74703E31E07FE372700001307F7C1AE
:1018100023A4E7021307000123A6E702B70700602D
:1018200003A74703E31E07FE3787FFFF1307070FD2
:101830002317E10037270000130727C123A4E7027D
:101840000357E100131707011357070123A6E70207
:101850003707006083274703E39E07FEB707006052
:10186000B726000013868702938626C193051000D1
:101870002320D60023A2B70203A74703E31E07FED7
:1018800003A7070313170701135707012314E100E8
:1018900023A20702035781001317070113570741BB
:1018A000E34807FC372700001307F7C123A4E7022A
:1018B00023A60702B707006003A74703E31E07FE3E
:1018C00037270000130707C023A4E70213071000FF
:1018D00023A2E702B707006003A74703E31E07FE42
:1018E00003A70703B7860000131707011357070163
:1018F0002313E10023A20702035761003367D700D7
:101900002313E10037270000130707C023A4E702D1
:1019100003576100131707011357070123A6E702B6
:101920003707006083274703E39E07FEB707006081
:10193000B726000093858702938606C01305100022
:1019400023A0D50023A2A70203A74703E31E07FE97
:1019500003A707031386470213170701135707014D
:101960002314E10023A20702035781001317070184
:1019700013570741E34607FC37270000130707C04A
:1019800023A4E702930710002320F600B7070060A6
:1019900003A74703E31E07FE03A707031317070167
:1019A000135707012314E10023A207028357A10064
:1019B0008357C10083578100130101016780000034
:1019C000B70700601307500023A0E7003777000037
:1019D0001307172023A2E700376760601307C703C8
:1019E00023A0E7043707C0B123A2E70437070100AB
:1019F000130707F023A4E7043707FF0F23A6E70424
:101A0000370700041307071823A8E70437078106E0
:101A10001307F7FF23AAE7043707080023AC0704DE
:101A20001307F7FF23AEE7041307F00023A0E71C1A
:101A30001307700023A0E70283A707026FF09FCC73
:101A4000B727000037070060938747D02324F702A9
:101A5000930710002322F702B707006003A747038C
:101A6000E31E07FE03A70703B726000023A2070211
:101A7000938646D023A4D702137717FE23A6E70246
:101A8000B707006003A74703E31E07FE37270000E0
:101A9000130797D023A4E7021307100023A2E7023D
:101AA000B707006003A74703E31E07FE03A707036A
:101AB000B726000023A20702938696D0136707205B
:101AC00023A4D70223A6E702370700608327470332
:101AD000E39E07FE67800000B7470F00130101FF78
:101AE000938707242322F100B78701009387076AB1
:101AF0002324F100B7270000370700609387F7D150
:101B00002324F70223260702B707006003A7470331
:101B1000E31E07FE37270000130707D023A4E702C0
:101B20001307100023A2E702B707006003A74703CB
:101B3000E31E07FE03A70703B716000093860620DF
:101B40003367D700B726000023A20702938606D08A
:101B500023A4D70223A6E7023707006083274703A1
:101B6000E39E07FEB70700603727000093858702D2
:101B7000130717D01305100023A0E50023A2A70226
:101B800083A64703E39E06FE83A6070323A207025C
:101B90000326410093F606021306F6FF2322C10036
:101BA0006396060083264100E39806FCB787010090
:101BB000232601009387F7690327C10063FCE71020
:101BC000B727000037070060938717D02324F70258
:101BD000930710002322F702B707006003A747030B
:101BE000E31E07FE03A7070323A20702137747009C
:101BF000630E070C371700001307073023A4E70212
:101C00001307100023A2E702B707006003A74703EA
:101C1000E31E07FE83A607033717000023A207026F
:101C2000B3E6E6001307073023A4E70223A6D70292
:101C3000B707006003A74703E31E07FE371700003E
:101C40001307073023A4E7021307100023A2E702BB
:101C5000B707006003A74703E31E07FE03A70703B8
:101C6000B716000023A207029386063013670720E9
:101C700023A4D70223A6E702370700608327470380
:101C8000E39E07FEB70700603717000093858702C1
:101C9000130717301305100023A0E50023A2A702A5
:101CA00083A64703E39E06FE83A6070323A207023B
:101CB0000326810093F606021306F6FF2324C100D3
:101CC0006396060083268100E39806FC1301010158
:101CD000678000000327C100130717002326E100D7
:101CE0006FF09FED130101FE231501002316010083
:101CF000B7270000232E11002317010037070060CB
:101D0000938727D02324F702930710002322F7029A
:101D1000B707006003A74703E31E07FE03A70703F7
:101D200013170701135707012315E1003727000098
:101D300023A20702130737D023A4E70213071000DA
:101D400023A2E702B707006003A74703E31E07FECD
:101D500003A7070313170701135707012316E10011
:101D600023A207020357A100B70701009387F7FFDB
:101D70006382E7028357A1009397070193D7070176
:101D8000639807048357C1009397070193D707010E
:101D90006390070437350080130545E4EFF08FADFD
:101DA0000355A100EFF00FAE37350080130545E76E
:101DB000EFF04FAC0355C100EFF0CFAC8320C10171
:101DC00037350080130585E7130101026FF08FAAF4
:101DD000B7270000370700609387F7D12324F70265
:101DE000930730002326F702B707006003A74703D5
:101DF000E31E07FE37270000130707D123A4E702DD
:101E00001307100023A2E702B707006003A74703E8
:101E1000E31E07FE03A70703131707011357070164
:101E20002317E10023A207020357E1001367070805
:101E30002317E10037270000130707D123A4E70287
:101E40000357E100131707011357070123A6E70201
:101E5000B707006003A74703E31E07FE372700000C
:101E60001307F7D123A4E7021307000123A6E70213
:101E7000B707006003A74703E31E07FE3787FFFF8E
:101E80001307070F2317E10037270000130727D197
:101E900023A4E7020357E1001317070113570701B3
:101EA00023A6E7023707006083274703E39E07FE68
:101EB000B7871E00B7260000938707489305F0FFF9
:101EC00037070060938626D1130510009387F7FF2C
:101ED0006392B710B7270000370700609387F7D1E8
:101EE0002324F70223260702B707006003A747034E
:101EF000E31E07FE37270000130707D023A4E702DD
:101F00001307100023A2E702B707006003A74703E7
:101F1000E31E07FE03A70703B78600001317070198
:101F2000135707012313E10023A20702035761009F
:101F30003367D7002313E10037270000130707D0CA
:101F400023A4E70203576100131707011357070182
:101F500023A6E7023707006083274703E39E07FEB7
:101F6000B7871E00B7260000938707489305F0FF48
:101F700037070060938606D0130510009387F7FF9C
:101F8000639EB708B727000037070060938707D024
:101F90002324F702930710002322F702B7070060FB
:101FA00003A74703E31E07FE03A707038320C1011E
:101FB00013170701135707012314E10023A2070297
:101FC0008357A1008357C100835781001301010289
:101FD000678000002324D7022322A7020326470399
:101FE000E31E06FE03260703131606011356060119
:101FF0002314C10023220702035681001316060191
:1020000013560641E34406ECE39607EC37350080AF
:10201000130585EAEFF00F866FF0DFEB2324D7027C
:102020002322A70203264703E31E06FE0326070317
:1020300013160601135606012314C10023220702BA
:10204000035681001316060113560641E34806F2B3
:10205000E39A07F2373500801305C5EEEFF08F8164
:102060006FF05FF2B73700601307500023A0E7005E
:10207000377700001307172023A2E7003767606057
:102080001307C70323A0E7043707C0B123A2E7045F
:1020900037070100130707F023A4E7043707FF0FF2
:1020A00023A6E704370700041307071823A8E7044B
:1020B000370781061307F7FF23AAE704370708004D
:1020C00023AC07041307F7FF23AEE7041307F00060
:1020D00023A0E71C1307700023A0E70283A70702D1
:1020E0006FF05FC037350080130101FA93061000CE
:1020F0001306A002B715006013050524232E110452
:10210000232C8104232A91042326310523225105FF
:1021100023206105232E7103232C8103232821050D
:1021200023244105232A91032328A1032326B10355
:10213000EFE01FA83735008013050598EFE09FF307
:10214000373500801305059BEFE0DFF2EF00C05B41
:10215000373500801305059EEFE0DFF1373500804D
:10216000130505A0EFE01FF137050060EFE05FF910
:10217000373500801305C5A1EFE0DFEFEFF05F8496
:10218000373500801305C5A3EFE0DFEE373500805B
:10219000130545A5EFE01FEE37050060EFE05FF6A1
:1021A000373400801305C4CBB7090100EFE09FEC82
:1021B000930400009389F9FF373B0080B73B008010
:1021C000373C0080930A000213F9F40F93052000B6
:1021D00013050900EFF0CF99130A050093053000AD
:1021E00013050900EFF0CF981309050063063A05BF
:1021F000B367AA009397070193D70701638E07027D
:102200001305CBA7EFE01FE713850400EFE05FF2B3
:102210001385CBA8EFE01FE613050A00EFE09FE669
:1022200013054CA9EFE01FE513050900EFE09FE55A
:102230001305C4CBEFE01FE493841400E39654F934
:10224000373500801305C5A9EFE0DFE237350080A0
:102250001305C5AAEFE01FE237350060EFE05FEA43
:1022600037350080130585ACEFE0DFE0EFF09FDF4E
:1022700037350080130585AEEFE0DFDF37350080AE
:10228000130505B0EFE01FDFB72700003707006038
:102290009387F7C12324F702930700012326F7024F
:1022A0003709006083274903E39E07FE9305300149
:1022B0001305C001EFF0CF8B930405003735008084
:1022C000130505B3EFE01FDB13850400EFE09FDB90
:1022D000B7270000938737C19394240193D4240136
:1022E0002324F90223269902B704006083A744033C
:1022F000E39E07FE37350080130545B4EFE09FD716
:10230000930530011305C001EFF08F86EFE09FD7F2
:102310001305C4CBEFE01FD6B7270000938727C172
:1023200023A4F402B78700009387070F23A6F402C3
:10233000B707006083A44703E39E04FEB7594C002F
:10234000938909B4930520011305C001EFF04F8272
:10235000131A0501135A0A41130905009384140046
:1023600063540A00E39034FF37350080130505B548
:10237000EFE05FD013050900EFE0DFD037350080D4
:10238000130585B6EFE01FCF13850400EFE05FD79C
:1023900063580A0037350080130545B7EFE09FCD3D
:1023A0009317190163D8070037350080130505B866
:1023B000EFE05FCC1305C4CBEFE0DFCBB727000025
:1023C000370700609387F7C12324F702232607020B
:1023D00083274703E39E07FE37290000B7FAFFFF74
:1023E000130909C09304C001B7090060938AFAFF7A
:1023F000B78BFFFF130C703E130B000293057001A7
:1024000013850400EFE0DFF69367790193970701E6
:102410003375550193D707411315050123A4F9021C
:102420001355050123A6A90283A74903E39E07FECE
:102430009305000013850400EFE09FF333657501F9
:102440001315050123A429031355050123A6A90289
:1024500003AA4903E31E0AFE232E01008327C101BC
:10246000637AFC249384140093F4F40F1309091085
:10247000E39664F937350080130505BAEFE09FBF96
:10248000373500801305C5BBEFE0DFBEEFE05FFD31
:1024900037350080130545BEEFE0DFBD37350080DE
:1024A000130505C0EFE01FBDEFF08FD93735008071
:1024B0001305C5C2EFE01FBC373500801305C5C446
:1024C000EFE05FBBEFF04F8337350080130545C762
:1024D000EFE05FBA37350080130585C9EFE09FB99B
:1024E000EFF08FDF37350080130505CCEFE09FB8A4
:1024F000B7350080938545CE1305C001EFE01FEB93
:10250000B7350080938545CF13052001EFE01FEA22
:10251000B7350080938505D01305D001EFE01FE9A2
:10252000B7350080938505D113053001EFE01FE832
:10253000373500801305C5D1EFE0DFB3B737006052
:1025400003A50700B73C0080373C0080EFE05FBB8D
:102550001305C4CBEFE01FB237350080130545D417
:10256000EFE05FB13735008093052001130585D773
:10257000EFE01FC93735008093053001130585D979
:10258000EFE01FC83735008093051001130585DB88
:10259000EFE01FC737350080130585DDEFE09FAD05
:1025A000B7177A009387F71FB73B0080373B00804F
:1025B000B73A0080B739008037390080232C0100FA
:1025C0000327810163F0E710930510001305C00194
:1025D000EFE01FDA930D05009305100013052001AD
:1025E000EFE01FD9130D0500930510001305D0016E
:1025F000EFE01FD893051000930405001305300188
:10260000EFE01FD71304050013858CE0EFE09FA6D1
:1026100013071A0013050A002326E100EFE05FB15B
:1026200013054CE1EFE01FA513850D00EFE09FA51A
:102630001385CBE1EFE01FA413050D00EFE09FA48D
:1026400013054BE2EFE01FA313850400EFE09FA307
:102650001385CAE2EFE01FA213050400EFE09FA27A
:10266000138549E3EFE01FA113D52D001375150065
:10267000EFE01FAC13552D0013751500EFE05FABB5
:1026800013D5240013751500EFE09FAA13552400FD
:1026900013751500EFE0DFA9130509BEEFE09F9D5C
:1026A0000327C100B7177A009387F71F130A0700A3
:1026B0006FF0DFF08327C10193871700232EF1000D
:1026C0006FF0DFD90327810113071700232CE100E6
:1026D0006FF01FEFB7676202938707A033D5A70299
:1026E000130101FF2326A1008327C1006396070081
:1026F00013010101678000008327C1009387F7FF62
:102700002326F1006FF05FFE130101FE232C8100F0
:102710003734008013060002B725006013058424B7
:10272000232E1100232A9100232821012326310181
:10273000232441012322510123206101EFE0CFDE58
:1027400013058424EFE0CFEC9305000013058424E7
:10275000EFE08FF3B7850000938505F0130584241F
:10276000EFE0DF879304F009B785000013058424A8
:10277000EFE0DF861375F50FE31895FEB7650000EF
:102780009385B51B1305842437890000B739008071
:10279000371A0000EFE09F8493040000130909F04A
:1027A000938989F2130B0001130A0A80930AF02F10
:1027B000338799008345070093978400B3F7270177
:1027C000B3E5B70013058424EFE05F81130500042F
:1027D0006384640113050A0093841400EFF09FEFF3
:1027E000E39854FDB76500009385B51B1305842459
:1027F000EFE0CFFE13058424032481018320C1016F
:1028000083244101032901018329C100032A810096
:10281000832A4100032B01009305000013010102EC
:102820006FE00FF11303F00013070500637EC3028E
:102830009377F7006390070A63920508937606FF83
:102840001376F600B386E6002320B7002322B700F4
:102850002324B7002326B70013070701E366D7FE3A
:102860006314060067800000B306C34093962600F9
:1028700097020000B38656006780C6002307B700A2
:10288000A306B7002306B700A305B7002305B700CA
:10289000A304B7002304B700A303B7002303B700C2
:1028A000A302B7002302B700A301B7002301B700BA
:1028B000A300B7002300B7006780000093F5F50F71
:1028C00093968500B3E5D50093960501B3E5D50051
:1028D0006FF0DFF69396270097020000B38656004C
:1028E00093820000E78006FA93800200938707FF37
:1028F0003307F7403306F600E378C3F66FF0DFF3F3
:102900005B7063735D2000002043746C3D00000029
:102910002F693D002F633D00205374733D0000007C
:10292000204578745374733D0000000020544249E0
:1029300043746C3D000000005B73746174655D203E
:1029400000000000205048592000000020737461EE
:102950007475733D00000000206C696E6B3D0000D3
:1029600020616E65675F646F6E653D0030313233A4
:10297000343536373839414243444546000000007B
:102980000D0A0D0A5B626F6F745D20696E7465726B
:102990006C6F636B206669726D7761726520697414
:1029A00065722D33207374617274696E670D0A004D
:1029B0005B626F6F745D20636F6E666967757265C9
:1029C0005F7A6C33303336342028636C6F636B204E
:1029D00067656E657261746F72290D0A00000000F0
:1029E0005B626F6F745D20636F6E66696775726599
:1029F0005F7A6C333033363420646F6E650D0A00B5
:102A00005B626F6F745D207473655F696E697420BB
:102A1000284D414320302040200000002C20504809
:102A20005920323820636F70706572202F20313842
:102A30002053474D4949290D0A0000005B626F6F22
:102A4000745D207473655F696E697420646F6E6570
:102A50000D0A00005B7363616E5D207377656570BE
:102A6000696E67204D44494F20302E2E3331207639
:102A70006961205453452040200000005B7363616E
:102A80006E5D202020616464723D00002020494476
:102A9000313D000020204944323D00005B736361FA
:102AA0006E5D20646F6E650D0A0000005B626F6FE3
:102AB000745D20747365315F696E697420284D41BF
:102AC00043203120402000002C205048592032392A
:102AD00020636F70706572202F2031392053474D6D
:102AE0004949290D0A0000005B626F6F745D207414
:102AF0007365315F696E697420646F6E650D0A00DD
:102B00005B7673635D205653433835373520342D5B
:102B1000706F72742053474D494920636F6E666928
:102B200067207374617274696E670D0A000000009B
:102B30005B7673635D20313947206265666F72652D
:102B40003D3078002061667465723D307800000089
:102B50005B7673635D2031384720706F73742D632B
:102B60006D643D3078000000206379636C65733DCF
:102B7000307800002054494D454F55540000000066
:102B8000204552524F5228737175656C63682D70E1
:102B9000617463682D6D697373696E672900000045
:102BA0005B7673635D205653433835373520696E45
:102BB000697420646F6E650D0A0000005B626F6FC0
:102BC000745D205068795F616476657274697365BD
:102BD0002028706F727420302C20504859203238D1
:102BE000290D0A005B626F6F745D205068795F6128
:102BF000647665727469736520646F6E650D0A0092
:102C00005B626F6F745D20506879315F61647665D7
:102C100072746973652028706F727420312C205093
:102C20004859203239290D0A000000005B626F6F9D
:102C3000745D20506879315F616476657274697380
:102C40006520646F6E650D0A000000005B626F6FA7
:102C5000745D207068795F6175746F6E65676F74FD
:102C6000696174696F6E2028706F72742030290D4D
:102C70000A0000005B626F6F745D207068795F61AD
:102C800075746F6E65676F74696174696F6E2064C7
:102C90006F6E650D0A0000005B626F6F745D2070DF
:102CA0006879315F6175746F6E65676F746961749F
:102CB000696F6E2028706F72742031290D0A000030
:102CC0005B626F6F745D20706879315F6175746FDE
:102CD0006E65676F74696174696F6E20646F6E658D
:102CE0000D0A0000706F72743020636F707065722F
:102CF00000000000706F7274302053474D49490046
:102D0000706F72743120636F707065720000000024
:102D1000706F7274312053474D4949005B70726F78
:102D200062655D20436F72655453455F31204D41AC
:102D3000435F434F4E4649475F312072656164737C
:102D4000200000005B646961675D2050435320727E
:102D5000656769737465722064756D702028697485
:102D600065722D3320766572626F73652070726FA5
:102D7000626573290D0A00005048593138202843F4
:102D80004F52455453455F30206B6E6F776E20670E
:102D90006F6F6429000000005048593139202843E2
:102DA0004F52455453455F3120756E6465722074EF
:102DB0006573742900000000504859313720287588
:102DC0006E757365643B206E656761746976652016
:102DD00063746C29000000005B626F6F745D206992
:102DE0006E697420636F6D706C65746520E2809409
:102DF00020706F6C6C696E6720626F746820706FF2
:102E00007274730D0A0000005B706F6C6C20743D6F
:102E1000000000005D207030633D000020703073C2
:102E20003D000000207031633D00000020703173D0
:102E30003D00000020286C696E6B20626974733A53
:102E4000200000005B706879315D205741524E4987
:102E50004E473A2050485920323920494420726563
:102E60006769737465722072656164732061732091
:102E700000000000202F200020E2809420504859BC
:102E8000206C696B656C7920616273656E742C20AF
:102E9000736B697070696E6720706879315F696EF5
:102EA00069740D0A000000005B706879315D20577D
:102EB00041524E494E473A2074696D656F757420D2
:102EC00077616974696E6720666F72205048592077
:102ED000323920726567203078313220626974207F
:102EE000313520636C6561720D0A00005B70687992
:102EF000315D205741524E494E473A2074696D6505
:102F00006F75742077616974696E6720666F7220CF
:102F100050485920323920726573657420636F6D93
:102F2000706C6574650D0A001F4005000009F2FF12
:102F3000FFFFFF046AAAAB000000000000000000D1
:102F400001800300000000000000000000000000FD
:102F50000000000000000000000000000000161645
:102F60001616161616161616160000000000AAAA47
:102F70002A005555150000005555555555555555C0
:102F80005555550000000000333333333303000040
:102F9000FF071B1B1B1BA01BA01B1B1B1B000000F8
:102FA00000000000000000019C4000FA0001000148
:102FB0009C4000FA000100019C4000FA0001000161
:102FC0009C4000FA00010001000100010001000125
:102FD0009C4001E600010001000100010001000128
:102FE0009C400271000100019C400271000100013F
:102FF0009C400C35000100019C400C350001000193
:1030000000000000000000000000000000000000C0
:103010000000000010325476980A00000000000002
:103020000000000000000002E482003300FFFFFF08
:10303000FFFF0F000087010B0022702064000000DA
:103040000005050000000000E487003300FFFFFFDB
:10305000FFFF0F000087010B0022702064000000BA
:1030600000050500000000000C00003300FF0FFF0A
:10307000FFFF0F000087010B00227020640000009A
:103080000005050000000000000000000000000036
:103090000000000000000000000000000000000030
:1030A000000000000000000300000300000000001A
:1030B0000000000000000000000000000000000010
:1030C0000000000000000000000000000000000000
:1030D0000014000000000000900F0000000000003D
:1030E00061A809C40001000161A809C40001000130
:1030F00061A809C40001000161A809C40001000120
:1031000000000000000000000000000000000000BF
:1031100000000000000000000000000000000000AF
:103120000000000000000004000004000008F2C3DA
:1031300050F3C350000002000064000064F3C35069
:1031400000000800000800006400002800000800DB
:10315000000800006400006400000000000000009F
:10316000000000000000000000000000000000005F
:10317000000000000000000000000000450000000A
:10318000000000000000000000BBFFFFFFFF000088
:1031900060000000000000000000000000000000CF
:1031A000000000000000000500000000000000001A
:1031B000000000000000000000000000000000000F
:1031C00000000000000000000000000000000000FF
:1031D00000000000000000000000000000000000EF
:1031E0000000000000000000000001FF0401FF04D7
:1031F00001FF0400000000000000000000000000CB
:1032000000000000000000000000000000000000BE
:1032100000000000000000000000000000000000AE
:10322000000000000000000000000000000000009E
:040000058000000077
:00000001FF
