:0200000480007A
:100000006F10405C6F00C00700000000000000009F
:100010006F00C010000000000000000000000000A1
:100020006F00401800000000000000000000000009
:100030006F00C01F00000000000000000000000072
:10004000000000006F0000276F00402F000000003C
:1000500000000000000000000000000000000000A0
:10006000000000006F0000366F00403E6F008046C9
:100070006F00C04E6F0000576F00405F6F008067D9
:10008000130101F81300000013000000130000002A
:1000900023201100232221002324310023264100A4
:1000A00023285100232A6100232C7100232E810074
:1000B000232091022322A1022324B1022326C1027C
:1000C0002328D102232AE102232CF102232E01034B
:1000D0002320110523222105232431052326410550
:1000E00023285105232A6105232C7105232E810520
:1000F000232091072322A1072324B1072326C10728
:100100002328D107232AE107232CF1077325203464
:10011000F3251034EF00906F6F004066130101F873
:100120002320110023222100232431002326410013
:1001300023285100232A6100232C7100232E8100E3
:10014000232091022322A1022324B1022326C102EB
:100150002328D102232AE102232CF102232E0103BA
:1001600023201105232221052324310523264105BF
:1001700023285105232A6105232C7105232E81058F
:10018000232091072322A1072324B1072326C10797
:100190002328D107232AE107232CF107EF009064DD
:1001A0006F00C05D130101F82320110023222100FC
:1001B000232431002326410023285100232A6100F3
:1001C000232C7100232E8100232091022322A102DF
:1001D0002324B1022326C1022328D102232AE102CB
:1001E000232CF102232E01032320110523222105B4
:1001F000232431052326410523285105232A61059F
:10020000232C7105232E8105232091072322A1078A
:100210002324B1072326C1072328D107232AE10776
:10022000232CF107EF0010566F004055130101F821
:100230002320110023222100232431002326410002
:1002400023285100232A6100232C7100232E8100D2
:10025000232091022322A1022324B1022326C102DA
:100260002328D102232AE102232CF102232E0103A9
:1002700023201105232221052324310523264105AE
:1002800023285105232A6105232C7105232E81057E
:10029000232091072322A1072324B1072326C10786
:1002A0002328D107232AE107232CF107EF009062CE
:1002B0006F00C04C130101F82320110023222100FC
:1002C000232431002326410023285100232A6100E2
:1002D000232C7100232E8100232091022322A102CE
:1002E0002324B1022326C1022328D102232AE102BA
:1002F000232CF102232E01032320110523222105A3
:10030000232431052326410523285105232A61058D
:10031000232C7105232E8105232091072322A10779
:100320002324B1072326C1072328D107232AE10765
:10033000232CF107EF00905A6F004044130101F89D
:1003400023201100232221002324310023264100F1
:1003500023285100232A6100232C7100232E8100C1
:10036000232091022322A1022324B1022326C102C9
:100370002328D102232AE102232CF102232E010398
:10038000232011052322210523243105232641059D
:1003900023285105232A6105232C7105232E81056D
:1003A000232091072322A1072324B1072326C10775
:1003B0002328D107232AE107232CF107EF00D0518E
:1003C0006F00C03B130101F82320110023222100FC
:1003D000232431002326410023285100232A6100D1
:1003E000232C7100232E8100232091022322A102BD
:1003F0002324B1022326C1022328D102232AE102A9
:10040000232CF102232E0103232011052322210591
:10041000232431052326410523285105232A61057C
:10042000232C7105232E8105232091072322A10768
:100430002324B1072326C1072328D107232AE10754
:10044000232CF107EF00504B6F004033130101F8EC
:1004500023201100232221002324310023264100E0
:1004600023285100232A6100232C7100232E8100B0
:10047000232091022322A1022324B1022326C102B8
:100480002328D102232AE102232CF102232E010387
:10049000232011052322210523243105232641058C
:1004A00023285105232A6105232C7105232E81055C
:1004B000232091072322A1072324B1072326C10764
:1004C0002328D107232AE107232CF107EF009042CC
:1004D0006F00C02A130101F82320110023222100FC
:1004E000232431002326410023285100232A6100C0
:1004F000232C7100232E8100232091022322A102AC
:100500002324B1022326C1022328D102232AE10297
:10051000232CF102232E0103232011052322210580
:10052000232431052326410523285105232A61056B
:10053000232C7105232E8105232091072322A10757
:100540002324B1072326C1072328D107232AE10743
:10055000232CF107EF00D0396F004022130101F87E
:1005600023201100232221002324310023264100CF
:1005700023285100232A6100232C7100232E81009F
:10058000232091022322A1022324B1022326C102A7
:100590002328D102232AE102232CF102232E010376
:1005A000232011052322210523243105232641057B
:1005B00023285105232A6105232C7105232E81054B
:1005C000232091072322A1072324B1072326C10753
:1005D0002328D107232AE107232CF107EF0010314C
:1005E0006F00C019130101F82320110023222100FC
:1005F000232431002326410023285100232A6100AF
:10060000232C7100232E8100232091022322A1029A
:100610002324B1022326C1022328D102232AE10286
:10062000232CF102232E010323201105232221056F
:10063000232431052326410523285105232A61055A
:10064000232C7105232E8105232091072322A10746
:100650002324B1072326C1072328D107232AE10732
:10066000232CF107EF0050286F004011130101F80F
:1006700023201100232221002324310023264100BE
:1006800023285100232A6100232C7100232E81008E
:10069000232091022322A1022324B1022326C10296
:1006A0002328D102232AE102232CF102232E010365
:1006B000232011052322210523243105232641056A
:1006C00023285105232A6105232C7105232E81053A
:1006D000232091072322A1072324B1072326C10742
:1006E0002328D107232AE107232CF107EF00901FCD
:1006F0006F00C008130101F82320110023222100FC
:10070000232431002326410023285100232A61009D
:10071000232C7100232E8100232091022322A10289
:100720002324B1022326C1022328D102232AE10275
:10073000232CF102232E010323201105232221055E
:10074000232431052326410523285105232A610549
:10075000232C7105232E8105232091072322A10735
:100760002324B1072326C1072328D107232AE10721
:10077000232CF107EF00D0166F004000832001000A
:1007800003214100832181000322C1008322010152
:1007900003234101832381010324C1018324010236
:1007A00003254102832581020326C102832601031A
:1007B00003274103832781030328C10383280104FE
:1007C0000329410483298104032AC104832A0105E2
:1007D000032B4105832B8105032CC105832C0106C6
:1007E000032D4106832D8106032EC106832E0107AA
:1007F000032F4107832F8107130101087300203065
:1008000000000000000000000000000000000000E8
:10081000B727000037070060938747C02324F702FB
:10082000930710002322F702B707006003A74703CE
:10083000E31E07FE03A70703B726000023A2070253
:10084000938646C023A4D702137717FE23A6E70298
:10085000B707006003A74703E31E07FE3727000022
:10086000130797C023A4E7021307100023A2E7028F
:10087000B707006003A74703E31E07FE03A70703AC
:10088000B726000023A20702938696C013670720AD
:1008900023A4D70223A6E702370700608327470374
:1008A000E39E07FE67800000B7470F00130101FFBA
:1008B000938707242322F100B78701009387076AF3
:1008C0002324F100B7270000370700609387F7C1A2
:1008D0002324F70223260702B707006003A7470374
:1008E000E31E07FE37270000130707C023A4E70213
:1008F0001307100023A2E702B707006003A747030E
:10090000E31E07FE03A70703B71600009386062021
:100910003367D700B726000023A20702938606C0DC
:1009200023A4D70223A6E7023707006083274703E3
:10093000E39E07FEB7070060372700009385870214
:10094000130717C01305100023A0E50023A2A70278
:1009500083A64703E39E06FE83A6070323A207029E
:100960000326410093F606021306F6FF2322C10078
:100970006396060083264100E39806FCB7870100D2
:10098000232601009387F7690327C10063FCE71062
:10099000B727000037070060938717C02324F702AA
:1009A000930710002322F702B707006003A747034D
:1009B000E31E07FE03A7070323A2070213774700DE
:1009C000630E070C371700001307072023A4E70264
:1009D0001307100023A2E702B707006003A747032D
:1009E000E31E07FE83A607033717000023A20702B2
:1009F000B3E6E6001307072023A4E70223A6D702E5
:100A0000B707006003A74703E31E07FE3717000080
:100A10001307072023A4E7021307100023A2E7020D
:100A2000B707006003A74703E31E07FE03A70703FA
:100A3000B716000023A2070293860620136707203B
:100A400023A4D70223A6E7023707006083274703C2
:100A5000E39E07FEB7070060371700009385870203
:100A6000130717201305100023A0E50023A2A702F7
:100A700083A64703E39E06FE83A6070323A207027D
:100A80000326810093F606021306F6FF2324C10015
:100A90006396060083268100E39806FC130101019A
:100AA000678000000327C100130717002326E10019
:100AB0006FF09FED130101FF2315010023160100C4
:100AC000B72700002317010037070060938727C06E
:100AD0002324F702930710002322F702B7070060D0
:100AE00003A74703E31E07FE03A707031317070126
:100AF000135707012315E1003727000023A207023F
:100B0000130737C023A4E7021307100023A2E7024C
:100B1000B707006003A74703E31E07FE03A7070309
:100B200013170701135707012316E10037270000A9
:100B300023A207021307F7C123A4E702130730001B
:100B400023A6E702B707006003A74703E31E07FEDB
:100B500037270000130707C123A4E702130710007B
:100B600023A2E702B707006003A74703E31E07FEBF
:100B700003A7070313170701135707012317E10002
:100B800023A207020357E100136707082317E100B8
:100B900037270000130707C123A4E7020357E1002A
:100BA000131707011357070123A6E702B7070060D1
:100BB00003A74703E31E07FE372700001307F7C10B
:100BC00023A4E7021307000123A6E702B70700608A
:100BD00003A74703E31E07FE3787FFFF1307070F2F
:100BE0002317E10037270000130727C123A4E702DA
:100BF0000357E100131707011357070123A6E70264
:100C00003707006083274703E39E07FEB7070060AE
:100C1000B726000013868702938626C1930510002D
:100C20002320D60023A2B70203A74703E31E07FE33
:100C300003A7070313170701135707012314E10044
:100C400023A2070203578100131707011357074117
:100C5000E34807FC372700001307F7C123A4E70286
:100C600023A60702B707006003A74703E31E07FE9A
:100C700037270000130707C023A4E702130710005B
:100C800023A2E702B707006003A74703E31E07FE9E
:100C900003A70703B78600001317070113570701BF
:100CA0002313E10023A20702035761003367D70033
:100CB0002313E10037270000130707C023A4E7022E
:100CC00003576100131707011357070123A6E70213
:100CD0003707006083274703E39E07FEB7070060DE
:100CE000B726000093858702938606C0130510007F
:100CF00023A0D50023A2A70203A74703E31E07FEF4
:100D000003A70703138647021317070113570701A9
:100D10002314E10023A207020357810013170701E0
:100D200013570741E34607FC37270000130707C0A6
:100D300023A4E702930710002320F600B707006002
:100D400003A74703E31E07FE03A7070313170701C3
:100D5000135707012314E10023A207021301010125
:100D600067800000B70700601307500023A0E7006A
:100D7000377700001307172023A2E700376760606A
:100D80001307C70323A0E7043707C0B123A2E70472
:100D900037070100130707F023A4E7043707FF0F05
:100DA00023A6E704370700041307071823A8E7045E
:100DB000370781061307F7FF23AAE7043707080060
:100DC00023AC07041307F7FF23AEE7041307F00073
:100DD00023A0E71C1307700023A0E70283A70702E4
:100DE0006FF05FCD130101FF232611002324810042
:100DF00023229100EF004007EFF0DFF6EFF05FA154
:100E0000EFF09FAA930610001306A002B71500602A
:100E100013850183EF00C069B72400801385018327
:100E2000938504BCEF00807313051000EF00800071
:100E30006FF0DFFEB7676202938707A033D5A70282
:100E4000130101FF2326A1008327C1006396070039
:100E500013010101678000008327C1009387F7FF1A
:100E60002326F1006FF05FFE130101FE232C8100A9
:100E70003724008013060002B7250060130584BFE5
:100E8000232E1100232A910023282101232631013A
:100E9000232441012322510123206101EF00802CF2
:100EA000130584BFEF00803A93050000130584BF4B
:100EB000EF004041B7850000938505F0130584BF1E
:100EC000EF0080559304F009B7850000130584BF37
:100ED000EF0080541375F50FE31895FEB765000019
:100EE0009385B51B130584BF37890000B72900809F
:100EF000371A0000EF00405293040000130909F074
:100F00009389098C130B0001130A0A80930AF02FAE
:100F1000338799008345070093978400B3F727012F
:100F2000B3E5B700130584BFEF00004F13050004BD
:100F30006384640113050A0093841400EFF09FEFAB
:100F4000E39854FDB76500009385B51B130584BF76
:100F5000EF00804C130584BF032481018320C1016D
:100F600083244101032901018329C100032A81004F
:100F7000832A4100032B01009305000013010102A5
:100F80006F00C03E130101FF2324810023261100BE
:100F900013040008F3374430EF00801337C7000212
:100FA00093860182832787FF0326C7FF03A70600D6
:100FB00083A64600B74500023387E700B337F70042
:100FC000B306D600B387D70023A0E50023A2F5001F
:100FD000732444308320C1000324810013010101E4
:100FE00067800000130101FF23261100EF00400D70
:100FF00037670000832707028320C10093F7D7FFDC
:101000002320F7021301010167800000635E0508D9
:101010009317150093D717001307B0006394E700E8
:101020006F00400B130730006394E7006FF09FFBE5
:10103000130770006394E7006FF0DFF4130780017B
:101040006394E7006F00400B130790016394E7007F
:101050006F00400A1307A0016394E7006F00400986
:101060001307B0016394E7006F0040081307C00145
:101070006394E7006F0040071307D0016394E70013
:101080006F0040061307E0016394E7006F0040051E
:10109000130700016394E7006F0040041307100179
:1010A0006394E7006F004003130101FF130515006F
:1010B00023261100EF0080046FF0DFD2678000006C
:1010C000130101FF1305A00023261100EF00000308
:1010D0006780000067800000678000006780000074
:1010E0006780000067800000678000006780000064
:1010F0006780000067800000678000006F000000CC
:10110000130101FF232481001304050003250500BA
:10111000930600001306100093050000232611001B
:10112000EF00406803250400930530001305C50156
:10113000EF004066032504009305F00F13054500FA
:10114000EF00406503250400032481008320C100D3
:10115000930610001306100093050000130101010F
:101160006F0040646302050E130101FF232291000A
:1011700023261100232481002320210193840500CC
:101180006388050A1304050013090600930500008F
:101190001306800413054500EF0040649307F9FF30
:1011A000939707012320940093D707011307F001B9
:1011B0006374F70013091000930600001306100073
:1011C000231224051385040093050000EF00805DC1
:1011D000032504009305000013054502EF00805B22
:1011E00003250400930530001305C501EF00805A64
:1011F000032504009305F00F13054500EF00805907
:10120000032504009305000013058501EF008058B5
:1012100003250400032481008320C10083244100AE
:101220000329010093053000130101016F0080566E
:101230008320C1000324810083244100032901008D
:10124000130101016780000067800000630A050642
:10125000130101FF23248100130405000325050069
:1012600093060000130610009305000023261100CA
:10127000EF004053032504002324040493053000A9
:101280001305C501EF000051032504009305F00F7D
:1012900013054500EF0000500325040093050000EE
:1012A00013058501EF00004F03250400032481008E
:1012B0008320C10093053000130101016F00804DB0
:1012C000678000006302050A9307700063EEB708A9
:1012D000130101FF232481001304050003250500E9
:1012E000232291001306200093840500930510002B
:1012F00023261100EF00804D630E05040325040032
:10130000130600019305400013050502EF00004C91
:10131000930710006316F50013050400EFF05FDE7D
:101320000325040013054502EF004047832704000E
:101330009305100003248100B39595008320C1001C
:1013400083244100B3E5A500138547021301010181
:101350006F0040448320C1000324810083244100A6
:101360001301010167800000678000006304050A23
:101370009307700063E0B70A130101FF2324810083
:101380001304050003250500232291001306200005
:10139000938405009305100023261100EF000043FD
:1013A00063000506032504001306000193054000B1
:1013B00013050502EF008041930710006316F50046
:1013C00013050400EFF0DFD30325040013054502E5
:1013D000EF00C03C83270400930510000324810024
:1013E000B39595008320C1008324410093C5F5FF88
:1013F000B3F5A50013854702130101016F00803981
:101400008320C100032481008324410013010101D2
:101410006780000067800000130101FE232E110089
:10142000232C8100232A9100232601006306050650
:10143000130405000325050093840500130620000E
:1014400093051000EF0080386308050403250400AD
:10145000930530001305C501EF00C03303250400D8
:101460009385040013058502EF00C02903250400BD
:10147000130620009305100013050502EF00003548
:1014800093071000E314F5FE0325040013058500FF
:10149000EF00C0272326A1008320C101032481017E
:1014A0000325C1008324410113010102678000006C
:1014B0006304050A9307700063E0D70AB7270000AA
:1014C000637CF608130101FE232C810023282101EF
:1014D0001304060013890500232A91009375F60F63
:1014E000930405001354544013058900232E110062
:1014F000232631011374847F93890600EF0080292D
:101500001305C900B3653401EF00C02813050901B4
:1015100023A02401EF008028137525006312050223
:10152000238204008320C10103248101832441011B
:10153000032901018329C100130101026780000012
:1015400003A5040013054500EF00402503A5040092
:10155000130505016FF01FFC67800000630205069C
:1015600063800506130101FF2324810023229100DB
:10157000232611009304050013840500834704000B
:10158000639C07008320C100032481008324410061
:10159000130101016780000003A504001305050184
:1015A000EF00C01F13751500E30805FE8345040016
:1015B00003A5040013041400EF00C01D6FF01FFC0E
:1015C00067800000735000307350403097F0FFFF89
:1015D000938040A3F322103093F21200639602022C
:1015E000F322503093F2320013031000639E620026
:1015F000F322503093F2C2FF17F3FFFF1303C3A08F
:10160000639A62046F00000197F2FFFF9382C29F0A
:1016100073905230170700001307C75A970700004E
:101620009387475A170800001308C8596308F70042
:101630006386070197000000E780000A9711000009
:10164000938141D8EF004001171100001301816020
:101650006FF09FA6730010009382000093870183B0
:101660001388018963840701EF00C0049387018216
:1016700013880183638C0701EF00C00393870189FE
:101680001388010963840701EF00C00217070000F7
:1016900013074753970700009387C75213880182A7
:1016A0006306F70063840701EF00C0029380020025
:1016B000678000006364F804B368F80093F83800AA
:1016C000634E100323A0070093874700E3CC07FF76
:1016D000678000006364F802B368F80093F838008C
:1016E000634E10018328070023A01701938747004A
:1016F00013074700E3C807FF6F0080006F0000007A
:10170000678000002320B5006780000003250500E6
:1017100067800000138E0600331EBE00337ECE00AD
:10172000032305009303060093C3F3FF3373730091
:101730003363C30123206500678000000325050093
:101740003375C5003355B500678000002310B50020
:10175000678000000315050067800000138E0600F7
:10176000331EBE00337ECE00031305009303060034
:1017700093C3F3FF337373003363C3012310650016
:1017800067800000031505003375C5003355B500AB
:10179000678000002300B500678000000305050096
:1017A00067800000138E0600331EBE00337ECE001D
:1017B000030305009303060093C3F3FF3373730021
:1017C0003363C30123006500678000000305050043
:1017D0003375C5003355B500678000001303F00072
:1017E00013070500637EC3029377F7006390070A2F
:1017F00063920508937606FF1376F600B386E6003B
:101800002320B7002322B7002324B7002326B700E4
:1018100013070701E366D7FE631406006780000024
:10182000B306C3409396260097020000B386560085
:101830006780C6002307B700A306B7002306B700DA
:10184000A305B7002305B700A304B7002304B7001E
:10185000A303B7002303B700A302B7002302B70016
:10186000A301B7002301B700A300B7002300B7000E
:101870006780000093F5F50F93968500B3E5D500DA
:1018800093960501B3E5D5006FF0DFF69396270038
:1018900097020000B386560093820000E78006FAA4
:1018A00093800200938707FF3307F7403306F60063
:1018B000E378C3F66FF0DFF30000000000000000E3
:1018C0001F4005000009F2FFFFFFFF046AAAAB00FA
:1018D0000000000000000000018003000000000084
:1018E00000000000000000000000000000000000F8
:1018F000000000000000161616161616161616160C
:10190000160000000000AAAA2A0055551500000084
:101910005555555555555555555555000000000020
:101920003333333333030000FF071B1B1B1BA01B88
:10193000A01B1B1B1B00000000000000000000019A
:101940009C4000FA000100019C4000FA00010001E7
:101950009C4000FA000100019C4000FA00010001D7
:1019600000010001000100019C4001E600010001AE
:1019700000010001000100019C4002710001000112
:101980009C400271000100019C400C3500010001E7
:101990009C400C3500010001000000000000000028
:1019A000000000000000000000000000103254762B
:1019B000980A000000000000000000000000000283
:1019C000E482003300FFFFFFFFFF0F000087010BE1
:1019D00000227020640000000005050000000000E7
:1019E000E487003300FFFFFFFFFF0F000087010BBC
:1019F00000227020640000000005050000000000C7
:101A00000C00003300FF0FFFFFFF0F000087010BEA
:101A100000227020640000000005050000000000A6
:101A200000000000000000000000000000000000B6
:101A300000000000000000000000000000000003A3
:101A40000000030000000000000000000000000093
:101A50000000000000000000000000000000000086
:101A60000000000000000000001400000000000062
:101A7000900F00000000000061A809C400010001EF
:101A800061A809C40001000161A809C400010001A6
:101A900061A809C40001000100000000000000006E
:101AA0000000000000000000000000000000000036
:101AB0000000000000000000000000000000000422
:101AC000000004000008F2C350F3C35000000200FD
:101AD0000064000064F3C350000008000008000028
:101AE0006400002800000800000800006400006492
:101AF00000000000000000000000000000000000E6
:101B000000000000000000000000000000000000D5
:101B10000000000045000000000000000000000080
:101B200000BBFFFFFFFF000060000000000000009E
:101B300000000000000000000000000000000005A0
:101B40000000000000000000000000000000000095
:101B50000000000000000000000000000000000085
:101B60000000000000000000000000000000000075
:101B70000000000000000000000000000000000065
:101B8000000001FF0401FF0401FF04000000000049
:101B90000000000000000000000000000000000045
:101BA0000000000000000000000000000000000035
:101BB0000000000000000000000000000000000025
:101BC0000D0A0D0A48656C6C6F20576F726C6421AA
:101BD0000000000000000000000000000000000005
:040000058000000077
:00000001FF
