:100000006F0010016F00C00700000000000000003A
:100010006F00C010000000000000000000000000A1
:100020006F00401800000000000000000000000009
:100030006F00C01F00000000000000000000000072
:10004000000000006F0000276F00402F000000003C
:1000500000000000000000000000000000000000A0
:10006000000000006F0000366F00403E6F008046C9
:100070006F00C04E6F0000576F00405F6F008067D9
:10008000130101F81300000013000000130000002A
:1000900023201100232221002324310023264100A4
:1000A00023285100232A6100232C7100232E810074
:1000B000232091022322A1022324B1022326C1027C
:1000C0002328D102232AE102232CF102232E01034B
:1000D0002320110523222105232431052326410550
:1000E00023285105232A6105232C7105232E810520
:1000F000232091072322A1072324B1072326C10728
:100100002328D107232AE107232CF1077325203464
:10011000F3251034EF00D0116F004066130101F891
:100120002320110023222100232431002326410013
:1001300023285100232A6100232C7100232E8100E3
:10014000232091022322A1022324B1022326C102EB
:100150002328D102232AE102232CF102232E0103BA
:1001600023201105232221052324310523264105BF
:1001700023285105232A6105232C7105232E81058F
:10018000232091072322A1072324B1072326C10797
:100190002328D107232AE107232CF107EF0090063B
:1001A0006F00C05D130101F82320110023222100FC
:1001B000232431002326410023285100232A6100F3
:1001C000232C7100232E8100232091022322A102DF
:1001D0002324B1022326C1022328D102232AE102CB
:1001E000232CF102232E01032320110523222105B4
:1001F000232431052326410523285105232A61059F
:10020000232C7105232E8105232091072322A1078A
:100210002324B1072326C1072328D107232AE10776
:10022000232CF107EF00C0756F004055130101F852
:100230002320110023222100232431002326410002
:1002400023285100232A6100232C7100232E8100D2
:10025000232091022322A1022324B1022326C102DA
:100260002328D102232AE102232CF102232E0103A9
:1002700023201105232221052324310523264105AE
:1002800023285105232A6105232C7105232E81057E
:10029000232091072322A1072324B1072326C10786
:1002A0002328D107232AE107232CF107EF0090210F
:1002B0006F00C04C130101F82320110023222100FC
:1002C000232431002326410023285100232A6100E2
:1002D000232C7100232E8100232091022322A102CE
:1002E0002324B1022326C1022328D102232AE102BA
:1002F000232CF102232E01032320110523222105A3
:10030000232431052326410523285105232A61058D
:10031000232C7105232E8105232091072322A10779
:100320002324B1072326C1072328D107232AE10765
:10033000232CF107EF00901C6F004044130101F8DB
:1003400023201100232221002324310023264100F1
:1003500023285100232A6100232C7100232E8100C1
:10036000232091022322A1022324B1022326C102C9
:100370002328D102232AE102232CF102232E010398
:10038000232011052322210523243105232641059D
:1003900023285105232A6105232C7105232E81056D
:1003A000232091072322A1072324B1072326C10775
:1003B0002328D107232AE107232CF107EF0050124D
:1003C0006F00C03B130101F82320110023222100FC
:1003D000232431002326410023285100232A6100D1
:1003E000232C7100232E8100232091022322A102BD
:1003F0002324B1022326C1022328D102232AE102A9
:10040000232CF102232E0103232011052322210591
:10041000232431052326410523285105232A61057C
:10042000232C7105232E8105232091072322A10768
:100430002324B1072326C1072328D107232AE10754
:10044000232CF107EF00D0176F004033130101F8A0
:1004500023201100232221002324310023264100E0
:1004600023285100232A6100232C7100232E8100B0
:10047000232091022322A1022324B1022326C102B8
:100480002328D102232AE102232CF102232E010387
:10049000232011052322210523243105232641058C
:1004A00023285105232A6105232C7105232E81055C
:1004B000232091072322A1072324B1072326C10764
:1004C0002328D107232AE107232CF107EF00900D01
:1004D0006F00C02A130101F82320110023222100FC
:1004E000232431002326410023285100232A6100C0
:1004F000232C7100232E8100232091022322A102AC
:100500002324B1022326C1022328D102232AE10297
:10051000232CF102232E0103232011052322210580
:10052000232431052326410523285105232A61056B
:10053000232C7105232E8105232091072322A10757
:100540002324B1072326C1072328D107232AE10743
:10055000232CF107EF0050036F004022130101F834
:1005600023201100232221002324310023264100CF
:1005700023285100232A6100232C7100232E81009F
:10058000232091022322A1022324B1022326C102A7
:100590002328D102232AE102232CF102232E010376
:1005A000232011052322210523243105232641057B
:1005B00023285105232A6105232C7105232E81054B
:1005C000232091072322A1072324B1072326C10753
:1005D0002328D107232AE107232CF107EF00007914
:1005E0006F00C019130101F82320110023222100FC
:1005F000232431002326410023285100232A6100AF
:10060000232C7100232E8100232091022322A1029A
:100610002324B1022326C1022328D102232AE10286
:10062000232CF102232E010323201105232221056F
:10063000232431052326410523285105232A61055A
:10064000232C7105232E8105232091072322A10746
:100650002324B1072326C1072328D107232AE10732
:10066000232CF107EF00C06E6F004011130101F859
:1006700023201100232221002324310023264100BE
:1006800023285100232A6100232C7100232E81008E
:10069000232091022322A1022324B1022326C10296
:1006A0002328D102232AE102232CF102232E010365
:1006B000232011052322210523243105232641056A
:1006C00023285105232A6105232C7105232E81053A
:1006D000232091072322A1072324B1072326C10742
:1006E0002328D107232AE107232CF107EF00806498
:1006F0006F00C008130101F82320110023222100FC
:10070000232431002326410023285100232A61009D
:10071000232C7100232E8100232091022322A10289
:100720002324B1022326C1022328D102232AE10275
:10073000232CF102232E010323201105232221055E
:10074000232431052326410523285105232A610549
:10075000232C7105232E8105232091072322A10735
:100760002324B1072326C1072328D107232AE10721
:10077000232CF107EF00405A6F0040008320010056
:1007800003214100832181000322C1008322010152
:1007900003234101832381010324C1018324010236
:1007A00003254102832581020326C102832601031A
:1007B00003274103832781030328C10383280104FE
:1007C0000329410483298104032AC104832A0105E2
:1007D000032B4105832B8105032CC105832C0106C6
:1007E000032D4106832D8106032EC106832E0107AA
:1007F000032F4107832F8107130101087300203065
:1008000000000000000000000000000000000000E8
:10081000735000307350403097F0FFFF9380807E1C
:10082000F322103093F2120063960202F32250304A
:1008300093F2320013031000639E6200F3225030E3
:1008400093F2C2FF17F3FFFF1303037C639A620462
:100850006F00000197F2FFFF9382027B739052308A
:1008600017270000130707E197270000938787E009
:1008700017280000130808E06308F70063860701E3
:1008800097000000E780000A972100009381815EB5
:10089000EF004001173100001301C1E66F00003B7B
:1008A00073001000938200009387018313880189ED
:1008B00063840701EF00C0049387018213880183DA
:1008C000638C0701EF00C003938701891388010936
:1008D00063840701EF00C00217270000130787D9C0
:1008E00097270000938707D9138801826306F700D2
:1008F00063840701EF00C00293800200678000005C
:100900006364F804B368F80093F83800634E10038A
:1009100023A0070093874700E3CC07FF6780000010
:100920006364F802B368F80093F83800634E10016E
:100930008328070023A01701938747001307470068
:10094000E3C807FF6F0080006F00000067800000B1
:10095000130101FF2326810013040101B767000082
:1009600003A70702B76700001377D7FF23A0E702AA
:10097000130000000324C10013010101678000007F
:10098000130101FE232E1100232C81001304010208
:1009900093070008F3B747302326F4FEEF00C0307A
:1009A000B7C70002938787FF03A8470083A7070004
:1009B00083A5018203A6418237450002B386B700B2
:1009C00093880600B3B8F8003307C800B387E8007F
:1009D0001387070093870600130807002320F500FC
:1009E0002322050193070008F3A747302324F4FED0
:1009F000130000008320C1010324810113010102BF
:100A000067800000130101FF2326110023248100C9
:100A100013040101EF00C027EFF09FF31300000063
:100A20008320C100032481001301010167800000BD
:100A3000130101FE232E1100232C81001304010257
:100A40002326A4FE2324B4FE8327C4FE63D2070218
:100A50000327C4FEB707008093C7F7FF3377F7007B
:100A60009307B0006316F700EF00C0256F00C01CAD
:100A70008327C4FE63D207020327C4FEB7070080A2
:100A800093C7F7FF3377F700930730006316F7003B
:100A9000EFF05FF76F00401A8327C4FE63D20702AE
:100AA0000327C4FEB707008093C7F7FF3377F7002B
:100AB000930770006316F700EFF09FEC6F00C0170C
:100AC0008327C4FE63D207020327C4FEB707008052
:100AD00093C7F7FF3377F700930780016316F7009A
:100AE000EF00002E6F0040158327C4FE63D207027B
:100AF0000327C4FEB707008093C7F7FF3377F700DB
:100B0000930790016316F700EF00C0296F00C01231
:100B10008327C4FE63D207020327C4FEB707008001
:100B200093C7F7FF3377F7009307A0016316F70029
:100B3000EF0080256F0040108327C4FE63D20702B8
:100B40000327C4FEB707008093C7F7FF3377F7008A
:100B50009307B0016316F700EF0040216F00C00D4E
:100B60008327C4FE63D207020327C4FEB7070080B1
:100B700093C7F7FF3377F7009307C0016316F700B9
:100B8000EF00001D6F00400B8327C4FE63D20702F5
:100B90000327C4FEB707008093C7F7FF3377F7003A
:100BA0009307D0016316F700EF00C0186F00C0086C
:100BB0008327C4FE63D207020327C4FEB707008061
:100BC00093C7F7FF3377F7009307E0016316F70049
:100BD000EF0080146F0040068327C4FE63D2070233
:100BE0000327C4FEB707008093C7F7FF3377F700EA
:100BF000930700016316F700EF0040106F00C00379
:100C00008327C4FE63D207020327C4FEB707008010
:100C100093C7F7FF3377F700930710016316F700C8
:100C2000EF00000C6F0040018327C4FE938717007C
:100C300013850700EF00801A130000008320C10114
:100C4000032481011301010267800000130101FFE9
:100C5000232611002324810013040101EF104041D9
:100C6000130000008320C10003248100130101014F
:100C700067800000130101FF232681001304010196
:100C8000130000000324C10013010101678000006C
:100C9000130101FF23261100232481001304010105
:100CA0001305A000EF008013130101FF232681002C
:100CB00013040101130000000324C100130101010A
:100CC00067800000130101FF232681001304010146
:100CD000130000000324C10013010101678000001C
:100CE000130101FF232681001304010113000000FA
:100CF0000324C1001301010167800000130101FFFB
:100D00002326810013040101130000000324C10005
:100D10001301010167800000130101FF23268100F8
:100D200013040101130000000324C1001301010199
:100D300067800000130101FF2326810013040101D5
:100D4000130000000324C1001301010167800000AB
:100D5000130101FF23268100130401011300000089
:100D60000324C1001301010167800000130101FF8A
:100D70002326810013040101130000000324C10095
:100D80001301010167800000130101FF2326810088
:100D900013040101130000000324C1001301010129
:100DA00067800000130101FF232681001304010165
:100DB000130000000324C10013010101678000003B
:100DC000130101FF23268100130401011300000019
:100DD0000324C1001301010167800000130101FE1B
:100DE000232E8100130401022326A4FE6F000000BD
:100DF0002320B50067800000032505006780000000
:100E0000138E0600331EBE00337ECE000323050082
:100E10009303060093C3F3FF337373003363C3017B
:100E20002320650067800000032505003375C50099
:100E30003355B500678000002310B50067800000BF
:100E40000315050067800000138E0600331EBE00E8
:100E5000337ECE00031305009303060093C3F3FF14
:100E6000337373003363C301231065006780000090
:100E7000031505003375C5003355B50067800000C4
:100E80002300B500678000000305050067800000AF
:100E9000138E0600331EBE00337ECE000303050012
:100EA0009303060093C3F3FF337373003363C301EB
:100EB0002300650067800000030505003375C50049
:100EC0003355B50067800000130101FD2326110290
:100ED0002324810213040103232EA4FC232CB4FC3D
:100EE0009307060013870600231BF4FC93070700F3
:100EF000A30AF4FC8327C4FD638A070C034754FD4F
:100F00009307700063E4E70C035764FDB727000004
:100F1000637EF70A832784FD13878700835764FD68
:100F200093F7F70F9385070013050700EFF05FF5C0
:100F3000832784FD9386C700034754FD835764FDD0
:100F400093D7574093F7877FB367F70093850700E0
:100F500013850600EFF0DFF28327C4FD032784FD2D
:100F600023A0E7008327C4FD83A707009387070119
:100F700013850700EFF05FF19307050093F7270053
:100F8000A307F4FE6F0080038327C4FD83A7070037
:100F90009387470013850700EFF01FEF8327C4FDF9
:100FA00083A707009387070113850700EFF0DFEDA4
:100FB0009307050093F72700A307F4FE8347F4FE89
:100FC000E39407FC8327C4FD23820700130000007D
:100FD0008320C10203248102130101036780000002
:100FE000130101FD232611022324810213040103AE
:100FF000232EA4FC232CB4FC8327C4FD63800708A4
:10100000832784FD638C0706232604FE6F00C0053A
:101010008327C4FD83A70700938707011385070073
:10102000EFF09FE69307050093F71700A305F4FE82
:101030008347B4FEE38E07FC8327C4FD83A6070025
:10104000032784FD8327C4FEB307F70083C7070087
:101050009385070013850600EFF09FE28327C4FE07
:10106000938717002326F4FE032784FD8327C4FEFD
:10107000B307F70083C70700E39C07F813000000DD
:101080008320C10203248102130101036780000051
:10109000130101FE232E1100232C810013040102F1
:1010A0002326A4FE2324B4FE930706002313F4FE94
:1010B0008327C4FE6384070E832784FE6380070EA4
:1010C0001306C004930500000325C4FEEF10801C26
:1010D0008327C4FE032784FE23A0E700035764FE92
:1010E0009307000263EEE700835764FE638A0700FC
:1010F0008327C4FE035764FE2392E7046F000001B8
:101100008327C4FE130710002392E7048327C4FE3D
:1011100083A7070093060000130610009305000044
:1011200013850700EFF0DFD68327C4FE83A70700EF
:10113000938747029305000013850700EFF05FD403
:101140008327C4FE83A707009387C7019305300058
:1011500013850700EFF0DFD28327C4FE83A70700C3
:10116000938747009305F00F13850700EFF05FD1D9
:101170008327C4FE83A70700938787019305000098
:1011800013850700EFF0DFCF8327C4FE83A7070096
:101190009305300013850700EFF09FCE1300000089
:1011A0008320C10103248101130101026780000033
:1011B000130101FE232E1100232C810013040102D0
:1011C0002326A4FE8327C4FE638207088327C4FE68
:1011D00083A7070093060000130610009305000084
:1011E00013850700EFF0DFCA8327C4FE23A407049A
:1011F0008327C4FE83A707009387C70193053000A8
:1012000013850700EFF0DFC78327C4FE83A707001D
:10121000938747009305F00F13850700EFF05FC633
:101220008327C4FE83A707009387870193050000E7
:1012300013850700EFF0DFC48327C4FE83A70700F0
:101240009305300013850700EFF09FC313000000E3
:101250008320C10103248101130101026780000082
:10126000130101FD2326110223248102130401032B
:10127000232EA4FC232CB4FC232604FE8327C4FDC8
:101280006386070A032784FD9307700063E0E70A7B
:101290008327C4FD83A707001306200093051000D1
:1012A00013850700EFF05FC193070500638007080F
:1012B0008327C4FD83A70700938707021306000155
:1012C0009305400013850700EFF01FBF930705004B
:1012D00013870700930710006316F7000325C4FD6A
:1012E000EF00C0218327C4FD83A70700938747022F
:1012F00013850700EFF05FB9930705009386070099
:10130000832784FD13071000B317F700B3E7F60037
:101310002326F4FE8327C4FD83A707009387470293
:101320008325C4FE13850700EFF09FB5130000006E
:101330008320C1020324810213010103678000009E
:10134000130101FD2326110223248102130401034A
:10135000232EA4FC232CB4FC232604FE8327C4FDE7
:101360006388070A032784FD9307700063E2E70A96
:101370008327C4FD83A707001306200093051000F0
:1013800013850700EFF05FB393070500638207083A
:101390008327C4FD83A70700938707021306000174
:1013A0009305400013850700EFF01FB19307050078
:1013B00013870700930710006316F7000325C4FD89
:1013C000EF00C0138327C4FD83A70700938747025C
:1013D00013850700EFF05FAB9307050093860700C6
:1013E000832784FD13071000B317F70093C7F7FF97
:1013F000B3F7F6002326F4FE8327C4FD83A7070076
:10140000938747028325C4FE13850700EFF05FA78B
:10141000130000008320C102032481021301010391
:1014200067800000130101FD23261102232481029D
:1014300013040103232EA4FC232CB4FC232604FE56
:101440008327C4FD6380070A8327C4FD83A70700A1
:10145000130620009305100013850700EFF0DFA5A9
:1014600093070500638007088327C4FD83A707004F
:101470009387C7019305300013850700EFF05FA045
:101480008327C4FD83A7070093878702832584FDF4
:1014900013850700EFF0DF95130000008327C4FDDC
:1014A00083A7070093870702130620009305100007
:1014B00013850700EFF05FA093070500138707006F
:1014C00093071000E31CF7FC8327C4FD83A70700E4
:1014D0009387870013850700EFF01F92930705009D
:1014E0002326F4FE8327C4FE138507008320C10250
:1014F000032481021301010367800000130101FE30
:10150000232E1100232C8100130401022326A4FEA4
:101510008327C4FE83A7070093060000130610006C
:101520009305000013850700EFF09F968327C4FE04
:1015300083A707009387C701930530001385070031
:10154000EFF01F948327C4FE83A70700938747000B
:101550009305F00F13850700EFF09F928327C4FED9
:1015600083A70700930610001306100093050000E0
:1015700013850700EFF0DF91130000008320C10105
:10158000032481011301010267800000130101FEA1
:10159000232E810013040102B70701009387F7FF90
:1015A0002326F4FEB70700609387870237270000E1
:1015B000130747C023A0E700B707006093874702DF
:1015C0001307100023A0E70013000000B707006016
:1015D0009387470383A70700E39A07FEB7070060D6
:1015E0009387070383A707002326F4FEB70700604D
:1015F0009387470223A007008327C4FE93F717FEB3
:101600002326F4FEB7070060938787023727000080
:10161000130747C023A0E700B70700609387C702FE
:101620000327C4FE23A0E70013000000B7070060F3
:101630009387470383A70700E39A07FEB707006075
:101640009387870237270000130797C023A0E7007E
:10165000B7070060938747021307100023A0E70035
:1016600013000000B70700609387470383A70700B4
:10167000E39A07FEB70700609387070383A7070075
:101680002326F4FEB70700609387470223A00700D4
:101690008327C4FE93E707202326F4FEB7070060E4
:1016A0009387870237270000130797C023A0E7001E
:1016B000B70700609387C7020327C4FE23A0E70093
:1016C00013000000B70700609387470383A7070054
:1016D000E39A07FE130000000324C1011301010275
:1016E00067800000130101FD23268102130401031A
:1016F000B70701009387F7FF2326F4FEB7470F00D3
:10170000938707242322F4FEB78701009387076A93
:101710002320F4FEB7070060938787023727000075
:101720001307F7C123A0E700B70700609387C7023C
:1017300023A0070013000000B7070060938747034A
:1017400083A70700E39A07FEB70700609387870225
:1017500037270000130707C023A0E700B707006082
:10176000938747021307100023A0E700130000002F
:10177000B70700609387470383A70700E39A07FE34
:10178000B70700609387070383A707002326F4FEAB
:10179000B70700609387470223A007000327C4FE12
:1017A000B717000093870720B367F7002326F4FEDE
:1017B000B70700609387870237270000130707C029
:1017C00023A0E700B70700609387C7020327C4FE82
:1017D00023A0E70013000000B707006093874703CA
:1017E00083A70700E39A07FEB70700609387870285
:1017F00037270000130717C023A0E700B7070060D2
:10180000938747021307100023A0E700130000008E
:10181000B70700609387470383A70700E39A07FE93
:10182000B70700609387070383A707002326F4FE0A
:10183000B70700609387470223A007008327C4FEF1
:101840009397070193D7070193F707022315F4FE37
:10185000832744FE9387F7FF2322F4FE8357A4FED9
:1018600063960700832744FEE39007F8232E04FCC9
:101870006F0000018327C4FD93871700232EF4FC1B
:101880000327C4FDB78701009387F769E3F4E7FEF8
:10189000B70700609387870237270000130717C038
:1018A00023A0E700B70700609387470213071000E3
:1018B00023A0E70013000000B707006093874703E9
:1018C00083A70700E39A07FEB70700609387070323
:1018D00083A707002326F4FEB7070060938747021B
:1018E00023A007008327C4FE93F7F70F93F7470061
:1018F000A304F4FE834794FE638E071AB7070060C3
:1019000093878702371700001307072023A0E700FB
:10191000B7070060938747021307100023A0E70072
:1019200013000000B70700609387470383A70700F1
:10193000E39A07FEB70700609387070383A70700B2
:101940002326F4FEB70700609387470223A0070011
:101950000327C4FEB7170000B367F7002326F4FE81
:10196000B707006093878702371700001307072027
:1019700023A0E700B70700609387C7020327C4FED0
:1019800023A0E70013000000B70700609387470318
:1019900083A70700E39A07FEB707006093878702D3
:1019A000371700001307072023A0E700B7070060E0
:1019B000938747021307100023A0E70013000000DD
:1019C000B70700609387470383A70700E39A07FEE2
:1019D000B70700609387070383A707002326F4FE59
:1019E000B70700609387470223A007008327C4FE40
:1019F00093E707202326F4FEB7070060938787024A
:101A0000371700001307072023A0E700B70700607F
:101A10009387C7020327C4FE23A0E700130000003A
:101A2000B70700609387470383A70700E39A07FE81
:101A3000B707006093878702371700001307172046
:101A400023A0E700B7070060938747021307100041
:101A500023A0E70013000000B70700609387470347
:101A600083A70700E39A07FEB70700609387070381
:101A700083A707002326F4FEB70700609387470279
:101A800023A007008327C4FE9397070193D707017C
:101A900093F707022315F4FE832704FE9387F7FFCD
:101AA0002320F4FE8357A4FE63960700832704FED9
:101AB000E39007F8130000000324C102130101039F
:101AC00067800000130101FE232E81001304010230
:101AD000231504FE231404FE231304FEB70700603D
:101AE0009387870237270000130727C023A0E7004A
:101AF000B7070060938747021307100023A0E70091
:101B000013000000B70700609387470383A707000F
:101B1000E39A07FEB70700609387070383A70700D0
:101B20009397070193D707012315F4FEB7070060C9
:101B30009387470223A00700B707006093878702B7
:101B400037270000130737C023A0E700B70700605E
:101B5000938747021307100023A0E700130000003B
:101B6000B70700609387470383A70700E39A07FE40
:101B7000B70700609387070383A7070093970701C0
:101B800093D707012314F4FEB70700609387470239
:101B900023A00700B707006093878702372700005C
:101BA0001307F7C123A0E700B70700609387C702B8
:101BB0001307300023A0E70013000000B707006000
:101BC0009387470383A70700E39A07FEB7070060E0
:101BD0009387870237270000130707C123A0E70078
:101BE000B7070060938747021307100023A0E700A0
:101BF00013000000B70700609387470383A707001F
:101C0000E39A07FEB70700609387070383A70700DF
:101C10009397070193D707012313F4FEB7070060DA
:101C20009387470223A00700835764FE9397070119
:101C300093D7070193E707089397070193D7070105
:101C40002313F4FEB707006093878702372700004D
:101C5000130707C123A0E700835764FE139707010A
:101C600013570701B70700609387C70223A0E70057
:101C700013000000B70700609387470383A707009E
:101C8000E39A07FEB70700609387870237270000B3
:101C90001307F7C123A0E700B70700609387C702C7
:101CA0001307000123A0E70013000000B70700603E
:101CB0009387470383A70700E39A07FEB787FFFFD1
:101CC0009387070F2313F4FEB707006093878702FB
:101CD00037270000130727C123A0E700835764FEBE
:101CE0001397070113570701B70700609387C702CF
:101CF00023A0E70013000000B707006093874703A5
:101D000083A70700E39A07FEB7070060938787025F
:101D100037270000130727C123A0E700B70700609B
:101D2000938747021307100023A0E7001300000069
:101D3000B70700609387470383A70700E39A07FE6E
:101D4000B70700609387070383A7070093970701EE
:101D500093D707012316F4FEB70700609387470265
:101D600023A007008357C4FE9397070193D7070169
:101D70009397070193D7074163D407006FF0DFF80B
:101D800013000000B7070060938787023727000021
:101D90001307F7C123A0E700B70700609387C702C6
:101DA00023A0070013000000B707006093874703D4
:101DB00083A70700E39A07FEB707006093878702AF
:101DC00037270000130707C023A0E700B70700600C
:101DD000938747021307100023A0E70013000000B9
:101DE000B70700609387470383A70700E39A07FEBE
:101DF000B70700609387070383A70700939707013E
:101E000093D707012317F4FEB707006093874702B3
:101E100023A007008357E4FE139707011357070118
:101E2000B787FFFFB367F7009397070193D70701C1
:101E30002317F4FEB7070060938787023727000057
:101E4000130707C023A0E7008357E4FE1397070199
:101E500013570701B70700609387C70223A0E70065
:101E600013000000B70700609387470383A70700AC
:101E7000E39A07FEB70700609387870237270000C1
:101E8000130707C023A0E700B70700609387470246
:101E90001307100023A0E70013000000B70700603D
:101EA0009387470383A70700E39A07FEB7070060FD
:101EB0009387070383A707009397070193D7070129
:101EC0002316F4FEB70700609387470223A007009C
:101ED0008357C4FE9397070193D707019397070190
:101EE00093D7074163D407006FF0DFF813000000B9
:101EF000B70700609387870237270000130707C0E2
:101F000023A0E700B707006093874702130710007C
:101F100023A0E70013000000B70700609387470382
:101F200083A70700E39A07FEB707006093870703BC
:101F300083A707009397070193D707012316F4FEA1
:101F4000B70700609387470223A007001300000033
:101F50000324C1011301010267800000130101FE87
:101F6000232E1100232C810013040102B707010066
:101F70009387F7FF2326F4FEB7070060130750008E
:101F800023A0E700B707006093874700377700007A
:101F90001307172023A0E700B70700609387070403
:101FA000376760601307C70323A0E700B707006027
:101FB000938747043707C0B123A0E700B707006045
:101FC0009387870437070100130707F023A0E70072
:101FD000B70700609387C7043707FF0F23A0E70008
:101FE000B707006093870705370700041307071832
:101FF00023A0E700B70700609387470537078106EE
:102000001307F7FF23A0E700B70700609387870552
:1020100023A00700B70700609387C70537070800AC
:102020001307F7FF23A0E700B70700609387071C9B
:102030001307F00023A0E700B707006093870702AB
:102040001307700023A0E700B7070060938707021B
:1020500083A707002326F4FEEFF0DFA6130000009D
:102060008320C10103248101130101026780000064
:10207000130101FF23261100232481001304010111
:10208000EF00C008EFF09FEDEFF04FD0EFF08FE5DD
:10209000930610001306A002B71500601385018394
:1020A000EFE09FE2B72700809385076713850183E0
:1020B000EFE01FF313051000EF0080006FF09FFEAC
:1020C000130101FD2326810213040103232EA4FC26
:1020D000B7676202138707A08327C4FDB357F702CF
:1020E0002326F4FE6F0000018327C4FE9387F7FFC9
:1020F0002326F4FE8327C4FEE39807FE13000000A6
:102100000324C1021301010367800000130101FDD4
:10211000232611022324810213040103232404FE35
:10212000232204FE93071000230CF4FCA30C04FCF0
:1021300013060002B7250060B72700801385876A61
:10214000EFE01FF5B72700801385876AEFF04F8611
:1021500093050000B72700801385876AEFF04F9042
:10216000230C04FC9307F007A30CF4FCB7870000D2
:10217000938507F0B72700801385876AEFF08FAA51
:10218000B7850000B72700801385876AEFF08FA915
:102190002322A4FE832744FE93F7F70F2320F4FEA7
:1021A000032704FE9307F009E31CF7FC9307F02FC5
:1021B0002324F4FEB76700009387B71B232EF4FC9B
:1021C0008325C4FDB72700801385876AEFF08FA5AC
:1021D000232604FE6F0040078327C4FE1397870061
:1021E000B7870000938707F0B377F70037270080A1
:1021F000930607370327C4FE3387E600034707002B
:10220000B3E7E700232EF4FC8325C4FDB727008045
:102210001385876AEFF00FA10327C4FE930700011F
:102220006318F70013050004EFF09FE96F00000149
:10223000B717000013850780EFF09FE88327C4FEDF
:10224000938717002326F4FE0327C4FE832784FE0A
:10225000E364F7F8B76700009387B71B232EF4FCFD
:102260008325C4FDB72700801385876AEFF08F9B15
:1022700093050000B72700801385876AEFF04F8C25
:10228000130000008320C102032481021301010313
:10229000678000001303F00013070500637EC3028C
:1022A0009377F7006390070A63920508937606FF19
:1022B0001376F600B386E6002320B7002322B7008A
:1022C0002324B7002326B70013070701E366D7FED0
:1022D0006314060067800000B306C340939626008F
:1022E00097020000B38656006780C6002307B70038
:1022F000A306B7002306B700A305B7002305B70060
:10230000A304B7002304B700A303B7002303B70057
:10231000A302B7002302B700A301B7002301B7004F
:10232000A300B7002300B7006780000093F5F50F06
:1023300093968500B3E5D50093960501B3E5D500E6
:102340006FF0DFF69396270097020000B3865600E1
:1023500093820000E78006FA93800200938707FFCC
:102360003307F7403306F600E378C3F66FF0DFF388
:102370001F4005000009F2FFFFFFFF046AAAAB003F
:1023800000000000000000000180030000000000C9
:10239000000000000000000000000000000000003D
:1023A0000000000000001616161616161616161651
:1023B000160000000000AAAA2A00555515000000CA
:1023C0005555555555555555555555000000000066
:1023D0003333333333030000FF071B1B1B1BA01BCE
:1023E000A01B1B1B1B0000000000000000000001E0
:1023F0009C4000FA000100019C4000FA000100012D
:102400009C4000FA000100019C4000FA000100011C
:1024100000010001000100019C4001E600010001F3
:1024200000010001000100019C4002710001000157
:102430009C400271000100019C400C35000100012C
:102440009C400C350001000100000000000000006D
:102450000000000000000000000000001032547670
:10246000980A0000000000000000000000000002C8
:10247000E482003300FFFFFFFFFF0F000087010B26
:10248000002270206400000000050500000000002C
:10249000E487003300FFFFFFFFFF0F000087010B01
:1024A000002270206400000000050500000000000C
:1024B0000C00003300FF0FFFFFFF0F000087010B30
:1024C00000227020640000000005050000000000EC
:1024D00000000000000000000000000000000000FC
:1024E00000000000000000000000000000000003E9
:1024F00000000300000000000000000000000000D9
:1025000000000000000000000000000000000000CB
:1025100000000000000000000014000000000000A7
:10252000900F00000000000061A809C40001000134
:1025300061A809C40001000161A809C400010001EB
:1025400061A809C4000100010000000000000000B3
:10255000000000000000000000000000000000007B
:102560000000000000000000000000000000000467
:10257000000004000008F2C350F3C3500000020042
:102580000064000064F3C35000000800000800006D
:1025900064000028000008000008000064000064D7
:1025A000000000000000000000000000000000002B
:1025B000000000000000000000000000000000001B
:1025C00000000000450000000000000000000000C6
:1025D00000BBFFFFFFFF00006000000000000000E4
:1025E00000000000000000000000000000000005E6
:1025F00000000000000000000000000000000000DB
:1026000000000000000000000000000000000000CA
:1026100000000000000000000000000000000000BA
:1026200000000000000000000000000000000000AA
:10263000000001FF0401FF0401FF0400000000008E
:10264000000000000000000000000000000000008A
:10265000000000000000000000000000000000007A
:10266000000000000000000000000000000000006A
:102670000D0A0D0A48656C6C6F20576F726C6421EF
:10268000000000000000000000000000000000004A
:040000058000000077
:00000001FF
